{
  "contractName": "HarvesterRole",
  "abi": [
    {
      "inputs": [],
      "payable": false,
      "stateMutability": "nonpayable",
      "type": "constructor"
    },
    {
      "anonymous": false,
      "inputs": [
        {
          "indexed": true,
          "name": "account",
          "type": "address"
        }
      ],
      "name": "HarvesterAdded",
      "type": "event"
    },
    {
      "anonymous": false,
      "inputs": [
        {
          "indexed": true,
          "name": "account",
          "type": "address"
        }
      ],
      "name": "HarvesterRemoved",
      "type": "event"
    },
    {
      "constant": true,
      "inputs": [
        {
          "name": "account",
          "type": "address"
        }
      ],
      "name": "isHarvester",
      "outputs": [
        {
          "name": "",
          "type": "bool"
        }
      ],
      "payable": false,
      "stateMutability": "view",
      "type": "function"
    },
    {
      "constant": false,
      "inputs": [
        {
          "name": "account",
          "type": "address"
        }
      ],
      "name": "addHarvester",
      "outputs": [],
      "payable": false,
      "stateMutability": "nonpayable",
      "type": "function"
    },
    {
      "constant": false,
      "inputs": [],
      "name": "renounceHarvester",
      "outputs": [],
      "payable": false,
      "stateMutability": "nonpayable",
      "type": "function"
    }
  ],
  "bytecode": "0x608060405234801561001057600080fd5b506100293361002e640100000000026401000000009004565b6101e8565b61004f816000610095640100000000026102b7179091906401000000009004565b8073ffffffffffffffffffffffffffffffffffffffff167f2a6b352b84affc85ec0ab54b71a09c17830148eb8a1c5aeabf5cd5e73ee7c24860405160405180910390a250565b600073ffffffffffffffffffffffffffffffffffffffff168173ffffffffffffffffffffffffffffffffffffffff16141515156100d157600080fd5b6100ea8282610154640100000000026401000000009004565b1515156100f657600080fd5b60018260000160008373ffffffffffffffffffffffffffffffffffffffff1673ffffffffffffffffffffffffffffffffffffffff16815260200190815260200160002060006101000a81548160ff0219169083151502179055505050565b60008073ffffffffffffffffffffffffffffffffffffffff168273ffffffffffffffffffffffffffffffffffffffff161415151561019157600080fd5b8260000160008373ffffffffffffffffffffffffffffffffffffffff1673ffffffffffffffffffffffffffffffffffffffff16815260200190815260200160002060009054906101000a900460ff16905092915050565b610442806101f76000396000f3fe608060405260043610610051576000357c0100000000000000000000000000000000000000000000000000000000900480638fab591714610056578063a71bbfd5146100a7578063b79ff79714610110575b600080fd5b34801561006257600080fd5b506100a56004803603602081101561007957600080fd5b81019080803573ffffffffffffffffffffffffffffffffffffffff169060200190929190505050610127565b005b3480156100b357600080fd5b506100f6600480360360208110156100ca57600080fd5b81019080803573ffffffffffffffffffffffffffffffffffffffff169060200190929190505050610147565b604051808215151515815260200191505060405180910390f35b34801561011c57600080fd5b50610125610164565b005b61013033610147565b151561013b57600080fd5b6101448161016f565b50565b600061015d8260006101c990919063ffffffff16565b9050919050565b61016d3361025d565b565b6101838160006102b790919063ffffffff16565b8073ffffffffffffffffffffffffffffffffffffffff167f2a6b352b84affc85ec0ab54b71a09c17830148eb8a1c5aeabf5cd5e73ee7c24860405160405180910390a250565b60008073ffffffffffffffffffffffffffffffffffffffff168273ffffffffffffffffffffffffffffffffffffffff161415151561020657600080fd5b8260000160008373ffffffffffffffffffffffffffffffffffffffff1673ffffffffffffffffffffffffffffffffffffffff16815260200190815260200160002060009054906101000a900460ff16905092915050565b61027181600061036790919063ffffffff16565b8073ffffffffffffffffffffffffffffffffffffffff167f78af5e2bc1f182518b5a494aa807f782e7a2026ab85683d13ce592896a52922f60405160405180910390a250565b600073ffffffffffffffffffffffffffffffffffffffff168173ffffffffffffffffffffffffffffffffffffffff16141515156102f357600080fd5b6102fd82826101c9565b15151561030957600080fd5b60018260000160008373ffffffffffffffffffffffffffffffffffffffff1673ffffffffffffffffffffffffffffffffffffffff16815260200190815260200160002060006101000a81548160ff0219169083151502179055505050565b600073ffffffffffffffffffffffffffffffffffffffff168173ffffffffffffffffffffffffffffffffffffffff16141515156103a357600080fd5b6103ad82826101c9565b15156103b857600080fd5b60008260000160008373ffffffffffffffffffffffffffffffffffffffff1673ffffffffffffffffffffffffffffffffffffffff16815260200190815260200160002060006101000a81548160ff021916908315150217905550505056fea165627a7a72305820fd03a0a08a79b310e1846763a2b12cae870724ef98acb349720485b2350bad0f0029",
  "source": "pragma solidity ^0.5.1;\r\n\r\n// Import the library 'Roles'\r\nimport \"./Roles.sol\";\r\n\r\n// Define a contract 'HarvesterRole' to manage this role - add, remove, check\r\ncontract HarvesterRole {\r\n  using Roles for Roles.Role;\r\n\r\n  // Define 2 events, one for Adding, and other for Removing\r\n  event HarvesterAdded(address indexed account);\r\n  event HarvesterRemoved(address indexed account);\r\n\r\n  // Define a struct 'harvesters' by inheriting from 'Roles' library, struct Role\r\n  Roles.Role private harvesters;\r\n\r\n  // In the constructor make the address that deploys this contract the 1st Harvester\r\n  constructor() public {\r\n    _addHarvester(msg.sender);\r\n  }\r\n\r\n  // Define a modifier that checks to see if msg.sender has the appropriate role\r\n  modifier onlyHarvester() {\r\n    require(isHarvester(msg.sender));\r\n    _;\r\n  }\r\n\r\n  // Define a function 'isHarvester' to check this role\r\n  function isHarvester(address account) public view returns (bool) {\r\n    return harvesters.has(account);\r\n  }\r\n\r\n  // Define a function 'addHarvester' that adds this role\r\n  function addHarvester(address account) public onlyHarvester {\r\n    _addHarvester(account);\r\n  }\r\n\r\n  // Define a function 'renounceHarvester' to renounce this role\r\n  function renounceHarvester() public {\r\n    _removeHarvester(msg.sender);\r\n  }\r\n\r\n  // Define an internal function '_addHarvester' to add this role, called by 'addHarvester'\r\n  function _addHarvester(address account) internal {\r\n    harvesters.add(account);\r\n    emit HarvesterAdded(account);\r\n  }\r\n\r\n  // Define an internal function '_removeHarvester' to remove this role, called by 'removeHarvester'\r\n  function _removeHarvester(address account) internal {\r\n    harvesters.remove(account);\r\n    emit HarvesterRemoved(account);\r\n  }\r\n}",
  "sourcePath": "C:\\Users\\Valentijn.vd.Hout\\Desktop\\Udacity_SupplyChain\\blockchain\\contracts\\Accesscontrol\\Harvester.sol",
  "compiler": {
    "name": "solc",
    "version": "0.5.1+commit.c8a2cb62.Emscripten.clang"
  },
  "schemaVersion": "3.0.0",
  "updatedAt": "2019-03-01T15:32:09.811Z",
  "devdoc": {
    "methods": {}
  },
  "userdoc": {
    "methods": {}
  }
}