{
  "contractName": "SupplyChain",
  "abi": [
    {
      "constant": false,
      "inputs": [
        {
          "name": "account",
          "type": "address"
        }
      ],
      "name": "addConsumer",
      "outputs": [],
      "payable": false,
      "stateMutability": "nonpayable",
      "type": "function",
      "signature": "0x112940f9"
    },
    {
      "constant": true,
      "inputs": [
        {
          "name": "account",
          "type": "address"
        }
      ],
      "name": "isManufacturer",
      "outputs": [
        {
          "name": "",
          "type": "bool"
        }
      ],
      "payable": false,
      "stateMutability": "view",
      "type": "function",
      "signature": "0x17d4a491"
    },
    {
      "constant": true,
      "inputs": [
        {
          "name": "account",
          "type": "address"
        }
      ],
      "name": "isRetailer",
      "outputs": [
        {
          "name": "",
          "type": "bool"
        }
      ],
      "payable": false,
      "stateMutability": "view",
      "type": "function",
      "signature": "0x5da09b88"
    },
    {
      "constant": false,
      "inputs": [
        {
          "name": "account",
          "type": "address"
        }
      ],
      "name": "addManufacturer",
      "outputs": [],
      "payable": false,
      "stateMutability": "nonpayable",
      "type": "function",
      "signature": "0x5f8a5afa"
    },
    {
      "constant": false,
      "inputs": [],
      "name": "renounceConsumer",
      "outputs": [],
      "payable": false,
      "stateMutability": "nonpayable",
      "type": "function",
      "signature": "0x61e6982d"
    },
    {
      "constant": false,
      "inputs": [],
      "name": "renounceDistributor",
      "outputs": [],
      "payable": false,
      "stateMutability": "nonpayable",
      "type": "function",
      "signature": "0x644241db"
    },
    {
      "constant": false,
      "inputs": [],
      "name": "renounceOwnership",
      "outputs": [],
      "payable": false,
      "stateMutability": "nonpayable",
      "type": "function",
      "signature": "0x715018a6"
    },
    {
      "constant": false,
      "inputs": [
        {
          "name": "account",
          "type": "address"
        }
      ],
      "name": "addDistributor",
      "outputs": [],
      "payable": false,
      "stateMutability": "nonpayable",
      "type": "function",
      "signature": "0x7250e224"
    },
    {
      "constant": true,
      "inputs": [
        {
          "name": "account",
          "type": "address"
        }
      ],
      "name": "isConsumer",
      "outputs": [
        {
          "name": "",
          "type": "bool"
        }
      ],
      "payable": false,
      "stateMutability": "view",
      "type": "function",
      "signature": "0x834ff739"
    },
    {
      "constant": true,
      "inputs": [],
      "name": "owner",
      "outputs": [
        {
          "name": "",
          "type": "address"
        }
      ],
      "payable": false,
      "stateMutability": "view",
      "type": "function",
      "signature": "0x8da5cb5b"
    },
    {
      "constant": false,
      "inputs": [
        {
          "name": "account",
          "type": "address"
        }
      ],
      "name": "addRetailer",
      "outputs": [],
      "payable": false,
      "stateMutability": "nonpayable",
      "type": "function",
      "signature": "0x8ec4f505"
    },
    {
      "constant": true,
      "inputs": [
        {
          "name": "account",
          "type": "address"
        }
      ],
      "name": "isDistributor",
      "outputs": [
        {
          "name": "",
          "type": "bool"
        }
      ],
      "payable": false,
      "stateMutability": "view",
      "type": "function",
      "signature": "0x8f0c86fa"
    },
    {
      "constant": true,
      "inputs": [],
      "name": "isOwner",
      "outputs": [
        {
          "name": "",
          "type": "bool"
        }
      ],
      "payable": false,
      "stateMutability": "view",
      "type": "function",
      "signature": "0x8f32d59b"
    },
    {
      "constant": false,
      "inputs": [
        {
          "name": "account",
          "type": "address"
        }
      ],
      "name": "addHarvester",
      "outputs": [],
      "payable": false,
      "stateMutability": "nonpayable",
      "type": "function",
      "signature": "0x8fab5917"
    },
    {
      "constant": true,
      "inputs": [
        {
          "name": "account",
          "type": "address"
        }
      ],
      "name": "isHarvester",
      "outputs": [
        {
          "name": "",
          "type": "bool"
        }
      ],
      "payable": false,
      "stateMutability": "view",
      "type": "function",
      "signature": "0xa71bbfd5"
    },
    {
      "constant": false,
      "inputs": [],
      "name": "renounceHarvester",
      "outputs": [],
      "payable": false,
      "stateMutability": "nonpayable",
      "type": "function",
      "signature": "0xb79ff797"
    },
    {
      "constant": false,
      "inputs": [],
      "name": "renounceRetailer",
      "outputs": [],
      "payable": false,
      "stateMutability": "nonpayable",
      "type": "function",
      "signature": "0xdb0e6a2f"
    },
    {
      "constant": false,
      "inputs": [],
      "name": "renounceManufacturer",
      "outputs": [],
      "payable": false,
      "stateMutability": "nonpayable",
      "type": "function",
      "signature": "0xde07f34e"
    },
    {
      "constant": false,
      "inputs": [
        {
          "name": "newOwner",
          "type": "address"
        }
      ],
      "name": "transferOwnership",
      "outputs": [],
      "payable": false,
      "stateMutability": "nonpayable",
      "type": "function",
      "signature": "0xf2fde38b"
    },
    {
      "inputs": [],
      "payable": true,
      "stateMutability": "payable",
      "type": "constructor",
      "signature": "constructor"
    },
    {
      "anonymous": false,
      "inputs": [
        {
          "indexed": false,
          "name": "upc",
          "type": "uint256"
        }
      ],
      "name": "Harvested",
      "type": "event",
      "signature": "0x8e55ccfc9778ff8eba1646d765cf1982537ce0f9257054a17b48aad745250183"
    },
    {
      "anonymous": false,
      "inputs": [
        {
          "indexed": false,
          "name": "upc",
          "type": "uint256"
        }
      ],
      "name": "Processed",
      "type": "event",
      "signature": "0x5afe3b1bf87069693c075da5c22a98d63d1aef98a30dbbe538d0781a98b77ee5"
    },
    {
      "anonymous": false,
      "inputs": [
        {
          "indexed": false,
          "name": "upc",
          "type": "uint256"
        }
      ],
      "name": "Packaged",
      "type": "event",
      "signature": "0x0c70d89b176b3792b9ff1a750105ae23454802a52d42ea9c264300e29fd8a3e1"
    },
    {
      "anonymous": false,
      "inputs": [
        {
          "indexed": false,
          "name": "upc",
          "type": "uint256"
        }
      ],
      "name": "ForSale",
      "type": "event",
      "signature": "0xa96ae0fc3224ebd79eebfe54bd130cc9cb94416cddd1f2386115e00b72532468"
    },
    {
      "anonymous": false,
      "inputs": [
        {
          "indexed": false,
          "name": "upc",
          "type": "uint256"
        }
      ],
      "name": "Sold",
      "type": "event",
      "signature": "0x92f64ca637d023f354075a4be751b169c1a8a9ccb6d33cdd0cb3520543995727"
    },
    {
      "anonymous": false,
      "inputs": [
        {
          "indexed": false,
          "name": "upc",
          "type": "uint256"
        }
      ],
      "name": "Shipped",
      "type": "event",
      "signature": "0xf00b9a5725b80c54016f42114f6ed7792d22eecb116011c4afac29c57bef6c95"
    },
    {
      "anonymous": false,
      "inputs": [
        {
          "indexed": false,
          "name": "upc",
          "type": "uint256"
        }
      ],
      "name": "Received",
      "type": "event",
      "signature": "0xa8142743f8f70a4c26f3691cf4ed59718381fb2f18070ec52be1f1022d855557"
    },
    {
      "anonymous": false,
      "inputs": [
        {
          "indexed": false,
          "name": "upc",
          "type": "uint256"
        }
      ],
      "name": "Manufactured",
      "type": "event",
      "signature": "0xd29d8a68ca7c8c74be5579719d445aabfe230ed6e6a83aff475a663500eb7609"
    },
    {
      "anonymous": false,
      "inputs": [
        {
          "indexed": false,
          "name": "upc",
          "type": "uint256"
        }
      ],
      "name": "PackagedByManufacturer",
      "type": "event",
      "signature": "0xd387ba7c66ff37ae33b5cbb19fe94bcbfe666ea31635889fba1abc7198c2f1bd"
    },
    {
      "anonymous": false,
      "inputs": [
        {
          "indexed": false,
          "name": "upc",
          "type": "uint256"
        }
      ],
      "name": "ForSaleByManufacturer",
      "type": "event",
      "signature": "0xaec623c8803eb3c795344cb3d2178da45139e85d984a1dc348cf9dc8bd7ff160"
    },
    {
      "anonymous": false,
      "inputs": [
        {
          "indexed": false,
          "name": "upc",
          "type": "uint256"
        }
      ],
      "name": "SoldByManufacturer",
      "type": "event",
      "signature": "0x4328f1523c24278e57f7bf2678f700578731296056751fe500cd6f53b1a5d952"
    },
    {
      "anonymous": false,
      "inputs": [
        {
          "indexed": false,
          "name": "upc",
          "type": "uint256"
        }
      ],
      "name": "ShippedByManufacturer",
      "type": "event",
      "signature": "0x25727bef8a186dd95a062151451f2d651551b53124c18208d7653b1217ae31ba"
    },
    {
      "anonymous": false,
      "inputs": [
        {
          "indexed": false,
          "name": "upc",
          "type": "uint256"
        }
      ],
      "name": "ForSaleByDistributor",
      "type": "event",
      "signature": "0x539b4a835a8a5d1bc5756a9f146e2bfeaa6bd6b1fa77a7631c0a5154c86cdd03"
    },
    {
      "anonymous": false,
      "inputs": [
        {
          "indexed": false,
          "name": "upc",
          "type": "uint256"
        }
      ],
      "name": "SoldByDistributor",
      "type": "event",
      "signature": "0x05421734cbd6ccee3e82115b938259200b4731bed9fa27bc7c3365991f8da6ad"
    },
    {
      "anonymous": false,
      "inputs": [
        {
          "indexed": false,
          "name": "upc",
          "type": "uint256"
        }
      ],
      "name": "ShippedByDistributor",
      "type": "event",
      "signature": "0xc5c33776d405e5686e4386e1ef31a65cf6195e4f7ceb8808ab64d05b6ccbc2a6"
    },
    {
      "anonymous": false,
      "inputs": [
        {
          "indexed": false,
          "name": "upc",
          "type": "uint256"
        }
      ],
      "name": "ForSaleByRetailer",
      "type": "event",
      "signature": "0x59e7ad085805e2b02ad4b0f8033bd75e7ee4c8cd43f996267463585e35896252"
    },
    {
      "anonymous": false,
      "inputs": [
        {
          "indexed": false,
          "name": "upc",
          "type": "uint256"
        }
      ],
      "name": "Purchased",
      "type": "event",
      "signature": "0x653d56639fee6b566a5c804764e9689de38645f0b733df89a36a1b7b42173dd8"
    },
    {
      "anonymous": false,
      "inputs": [
        {
          "indexed": false,
          "name": "upc",
          "type": "uint256"
        }
      ],
      "name": "ShippedByRetailer",
      "type": "event",
      "signature": "0x00114a6fadb43e05c82c84612f44de7a592a32426b619579ae7bb4f3815616c7"
    },
    {
      "anonymous": false,
      "inputs": [
        {
          "indexed": false,
          "name": "upc",
          "type": "uint256"
        }
      ],
      "name": "ReceivedByConsumer",
      "type": "event",
      "signature": "0xbab163f2da28430bab730ae05df46dce1bd9afc246c0c127134bfe9dc18e053c"
    },
    {
      "anonymous": false,
      "inputs": [
        {
          "indexed": true,
          "name": "previousOwner",
          "type": "address"
        },
        {
          "indexed": true,
          "name": "newOwner",
          "type": "address"
        }
      ],
      "name": "OwnershipTransferred",
      "type": "event",
      "signature": "0x8be0079c531659141344cd1fd0a4f28419497f9722a3daafe3b4186f6b6457e0"
    },
    {
      "anonymous": false,
      "inputs": [
        {
          "indexed": true,
          "name": "account",
          "type": "address"
        }
      ],
      "name": "ConsumerAdded",
      "type": "event",
      "signature": "0x28b26e7a3d20aedbc5f8f2ebf7da671c0491723a2b78f47a097b0e46dee07142"
    },
    {
      "anonymous": false,
      "inputs": [
        {
          "indexed": true,
          "name": "account",
          "type": "address"
        }
      ],
      "name": "ConsumerRemoved",
      "type": "event",
      "signature": "0xe3f5ed5f263f1f01764a96edfc7d025f511ec5f7d180e8816908b78bcf74f098"
    },
    {
      "anonymous": false,
      "inputs": [
        {
          "indexed": true,
          "name": "account",
          "type": "address"
        }
      ],
      "name": "RetailerAdded",
      "type": "event",
      "signature": "0x71ae26cad02663e3d92efd6ec56031a80d74a20c0ab4183faa8bf262261c9baa"
    },
    {
      "anonymous": false,
      "inputs": [
        {
          "indexed": true,
          "name": "account",
          "type": "address"
        }
      ],
      "name": "RetailerRemoved",
      "type": "event",
      "signature": "0xdb7176e79cffef81cb01767dd0447a0b24bb72ca9778d4b245581086b2a7e6db"
    },
    {
      "anonymous": false,
      "inputs": [
        {
          "indexed": true,
          "name": "account",
          "type": "address"
        }
      ],
      "name": "DistributorAdded",
      "type": "event",
      "signature": "0xddbf200aa634dc3fb81cfd68583dd1040d1c751d335e1d86b631bde3e977fea8"
    },
    {
      "anonymous": false,
      "inputs": [
        {
          "indexed": true,
          "name": "account",
          "type": "address"
        }
      ],
      "name": "DistributorRemoved",
      "type": "event",
      "signature": "0x126174f6cf49c81cdb4a9214c6b8f037bef55b4ec31e4fc776cea2a1c8a88d59"
    },
    {
      "anonymous": false,
      "inputs": [
        {
          "indexed": true,
          "name": "account",
          "type": "address"
        }
      ],
      "name": "ManufacturerAdded",
      "type": "event",
      "signature": "0x561138658ca49a8540dc70dcfe64c9026c1c5b9344642242dd6562970f9c1278"
    },
    {
      "anonymous": false,
      "inputs": [
        {
          "indexed": true,
          "name": "account",
          "type": "address"
        }
      ],
      "name": "ManufacturerRemoved",
      "type": "event",
      "signature": "0x2fed5abf6a80d6dfe30b4895481b2fc5d7dce5f8f7b931832f4a2947d5040c7f"
    },
    {
      "anonymous": false,
      "inputs": [
        {
          "indexed": true,
          "name": "account",
          "type": "address"
        }
      ],
      "name": "HarvesterAdded",
      "type": "event",
      "signature": "0x2a6b352b84affc85ec0ab54b71a09c17830148eb8a1c5aeabf5cd5e73ee7c248"
    },
    {
      "anonymous": false,
      "inputs": [
        {
          "indexed": true,
          "name": "account",
          "type": "address"
        }
      ],
      "name": "HarvesterRemoved",
      "type": "event",
      "signature": "0x78af5e2bc1f182518b5a494aa807f782e7a2026ab85683d13ce592896a52922f"
    },
    {
      "constant": false,
      "inputs": [],
      "name": "kill",
      "outputs": [],
      "payable": false,
      "stateMutability": "nonpayable",
      "type": "function",
      "signature": "0x41c0e1b5"
    },
    {
      "constant": false,
      "inputs": [
        {
          "name": "_upc",
          "type": "uint256"
        },
        {
          "name": "_originHarvesterID",
          "type": "address"
        },
        {
          "name": "_originHarvesterName",
          "type": "string"
        },
        {
          "name": "_originHarvesterInformation",
          "type": "string"
        },
        {
          "name": "_originHarvesterLatitude",
          "type": "string"
        },
        {
          "name": "_originHarvesterLongitude",
          "type": "string"
        },
        {
          "name": "_productNotes",
          "type": "string"
        }
      ],
      "name": "harvestItem",
      "outputs": [],
      "payable": false,
      "stateMutability": "nonpayable",
      "type": "function",
      "signature": "0xbdd8a6a8"
    },
    {
      "constant": false,
      "inputs": [
        {
          "name": "_upc",
          "type": "uint256"
        }
      ],
      "name": "processItem",
      "outputs": [],
      "payable": false,
      "stateMutability": "nonpayable",
      "type": "function",
      "signature": "0x49dae766"
    },
    {
      "constant": false,
      "inputs": [
        {
          "name": "_upc",
          "type": "uint256"
        }
      ],
      "name": "packageItem",
      "outputs": [],
      "payable": false,
      "stateMutability": "nonpayable",
      "type": "function",
      "signature": "0xe7f89c89"
    },
    {
      "constant": false,
      "inputs": [
        {
          "name": "_upc",
          "type": "uint256"
        },
        {
          "name": "_price",
          "type": "uint256"
        }
      ],
      "name": "sellItem",
      "outputs": [],
      "payable": false,
      "stateMutability": "nonpayable",
      "type": "function",
      "signature": "0x2d923561"
    },
    {
      "constant": false,
      "inputs": [
        {
          "name": "_upc",
          "type": "uint256"
        }
      ],
      "name": "buyItem",
      "outputs": [],
      "payable": true,
      "stateMutability": "payable",
      "type": "function",
      "signature": "0xe7fb74c7"
    },
    {
      "constant": false,
      "inputs": [
        {
          "name": "_upc",
          "type": "uint256"
        }
      ],
      "name": "shipItem",
      "outputs": [],
      "payable": false,
      "stateMutability": "nonpayable",
      "type": "function",
      "signature": "0xf61c899a"
    },
    {
      "constant": false,
      "inputs": [
        {
          "name": "_upc",
          "type": "uint256"
        }
      ],
      "name": "receiveItem",
      "outputs": [],
      "payable": false,
      "stateMutability": "nonpayable",
      "type": "function",
      "signature": "0xa26be999"
    },
    {
      "constant": false,
      "inputs": [
        {
          "name": "_upc",
          "type": "uint256"
        }
      ],
      "name": "manufactureProduct",
      "outputs": [],
      "payable": false,
      "stateMutability": "nonpayable",
      "type": "function",
      "signature": "0x6467a6d5"
    },
    {
      "constant": false,
      "inputs": [
        {
          "name": "_upc",
          "type": "uint256"
        }
      ],
      "name": "packageProduct",
      "outputs": [],
      "payable": false,
      "stateMutability": "nonpayable",
      "type": "function",
      "signature": "0x149fd3a9"
    },
    {
      "constant": false,
      "inputs": [
        {
          "name": "_upc",
          "type": "uint256"
        },
        {
          "name": "_price",
          "type": "uint256"
        }
      ],
      "name": "sellProductByManfacturer",
      "outputs": [],
      "payable": false,
      "stateMutability": "nonpayable",
      "type": "function",
      "signature": "0x24b62b5b"
    },
    {
      "constant": false,
      "inputs": [
        {
          "name": "_upc",
          "type": "uint256"
        }
      ],
      "name": "buyProductByDistributor",
      "outputs": [],
      "payable": true,
      "stateMutability": "payable",
      "type": "function",
      "signature": "0xbed4b50f"
    },
    {
      "constant": false,
      "inputs": [
        {
          "name": "_upc",
          "type": "uint256"
        }
      ],
      "name": "shipProductByManufacturer",
      "outputs": [],
      "payable": false,
      "stateMutability": "nonpayable",
      "type": "function",
      "signature": "0x64c93004"
    },
    {
      "constant": false,
      "inputs": [
        {
          "name": "_upc",
          "type": "uint256"
        },
        {
          "name": "_price",
          "type": "uint256"
        }
      ],
      "name": "sellProductByDistributor",
      "outputs": [],
      "payable": false,
      "stateMutability": "nonpayable",
      "type": "function",
      "signature": "0x528356ed"
    },
    {
      "constant": false,
      "inputs": [
        {
          "name": "_upc",
          "type": "uint256"
        }
      ],
      "name": "buyProductByRetailer",
      "outputs": [],
      "payable": true,
      "stateMutability": "payable",
      "type": "function",
      "signature": "0x72cf2009"
    },
    {
      "constant": false,
      "inputs": [
        {
          "name": "_upc",
          "type": "uint256"
        }
      ],
      "name": "shipProductByDistributor",
      "outputs": [],
      "payable": false,
      "stateMutability": "nonpayable",
      "type": "function",
      "signature": "0xafe522b4"
    },
    {
      "constant": false,
      "inputs": [
        {
          "name": "_upc",
          "type": "uint256"
        },
        {
          "name": "_price",
          "type": "uint256"
        }
      ],
      "name": "sellProductByRetailer",
      "outputs": [],
      "payable": false,
      "stateMutability": "nonpayable",
      "type": "function",
      "signature": "0xcc7b439f"
    },
    {
      "constant": false,
      "inputs": [
        {
          "name": "_upc",
          "type": "uint256"
        }
      ],
      "name": "purchase",
      "outputs": [],
      "payable": true,
      "stateMutability": "payable",
      "type": "function",
      "signature": "0xefef39a1"
    },
    {
      "constant": false,
      "inputs": [
        {
          "name": "_upc",
          "type": "uint256"
        }
      ],
      "name": "shipProductByRetailer",
      "outputs": [],
      "payable": false,
      "stateMutability": "nonpayable",
      "type": "function",
      "signature": "0xf1969441"
    },
    {
      "constant": false,
      "inputs": [
        {
          "name": "_upc",
          "type": "uint256"
        }
      ],
      "name": "receiveProduct",
      "outputs": [],
      "payable": false,
      "stateMutability": "nonpayable",
      "type": "function",
      "signature": "0x29d78328"
    },
    {
      "constant": true,
      "inputs": [
        {
          "name": "_upc",
          "type": "uint256"
        }
      ],
      "name": "fetchItemBufferOne",
      "outputs": [
        {
          "name": "itemSKU",
          "type": "uint256"
        },
        {
          "name": "itemUPC",
          "type": "uint256"
        },
        {
          "name": "ownerID",
          "type": "address"
        },
        {
          "name": "originHarvesterID",
          "type": "address"
        },
        {
          "name": "originHarvesterName",
          "type": "string"
        },
        {
          "name": "originHarvesterInformation",
          "type": "string"
        },
        {
          "name": "originHarvesterLatitude",
          "type": "string"
        },
        {
          "name": "originHarvesterLongitude",
          "type": "string"
        }
      ],
      "payable": false,
      "stateMutability": "view",
      "type": "function",
      "signature": "0x77c45913"
    },
    {
      "constant": true,
      "inputs": [
        {
          "name": "_upc",
          "type": "uint256"
        }
      ],
      "name": "fetchItemBufferTwo",
      "outputs": [
        {
          "name": "itemSKU",
          "type": "uint256"
        },
        {
          "name": "itemUPC",
          "type": "uint256"
        },
        {
          "name": "productID",
          "type": "uint256"
        },
        {
          "name": "productNotes",
          "type": "string"
        },
        {
          "name": "productNotesByManufacturer",
          "type": "string"
        },
        {
          "name": "productPrice",
          "type": "uint256"
        },
        {
          "name": "itemState",
          "type": "uint8"
        },
        {
          "name": "itemState2",
          "type": "uint8"
        },
        {
          "name": "distributorID",
          "type": "address"
        },
        {
          "name": "retailerID",
          "type": "address"
        },
        {
          "name": "consumerID",
          "type": "address"
        }
      ],
      "payable": false,
      "stateMutability": "view",
      "type": "function",
      "signature": "0x66225ff9"
    }
  ],
  "bytecode": "0x60806040526200001e336200015a640100000000026401000000009004565b6200003833620001c4640100000000026401000000009004565b62000052336200022e640100000000026401000000009004565b6200006c3362000298640100000000026401000000009004565b620000863362000302640100000000026401000000009004565b33600560006101000a81548173ffffffffffffffffffffffffffffffffffffffff021916908373ffffffffffffffffffffffffffffffffffffffff160217905550600560009054906101000a900473ffffffffffffffffffffffffffffffffffffffff1673ffffffffffffffffffffffffffffffffffffffff16600073ffffffffffffffffffffffffffffffffffffffff167f8be0079c531659141344cd1fd0a4f28419497f9722a3daafe3b4186f6b6457e060405160405180910390a360016007819055506001600681905550620004c4565b6200017e8160006200036c6401000000000262004be4179091906401000000009004565b8073ffffffffffffffffffffffffffffffffffffffff167f2a6b352b84affc85ec0ab54b71a09c17830148eb8a1c5aeabf5cd5e73ee7c24860405160405180910390a250565b620001e88160016200036c6401000000000262004be4179091906401000000009004565b8073ffffffffffffffffffffffffffffffffffffffff167f561138658ca49a8540dc70dcfe64c9026c1c5b9344642242dd6562970f9c127860405160405180910390a250565b620002528160026200036c6401000000000262004be4179091906401000000009004565b8073ffffffffffffffffffffffffffffffffffffffff167fddbf200aa634dc3fb81cfd68583dd1040d1c751d335e1d86b631bde3e977fea860405160405180910390a250565b620002bc8160036200036c6401000000000262004be4179091906401000000009004565b8073ffffffffffffffffffffffffffffffffffffffff167f71ae26cad02663e3d92efd6ec56031a80d74a20c0ab4183faa8bf262261c9baa60405160405180910390a250565b620003268160046200036c6401000000000262004be4179091906401000000009004565b8073ffffffffffffffffffffffffffffffffffffffff167f28b26e7a3d20aedbc5f8f2ebf7da671c0491723a2b78f47a097b0e46dee0714260405160405180910390a250565b600073ffffffffffffffffffffffffffffffffffffffff168173ffffffffffffffffffffffffffffffffffffffff1614151515620003a957600080fd5b620003c482826200042f640100000000026401000000009004565b151515620003d157600080fd5b60018260000160008373ffffffffffffffffffffffffffffffffffffffff1673ffffffffffffffffffffffffffffffffffffffff16815260200190815260200160002060006101000a81548160ff0219169083151502179055505050565b60008073ffffffffffffffffffffffffffffffffffffffff168273ffffffffffffffffffffffffffffffffffffffff16141515156200046d57600080fd5b8260000160008373ffffffffffffffffffffffffffffffffffffffff1673ffffffffffffffffffffffffffffffffffffffff16815260200190815260200160002060009054906101000a900460ff16905092915050565b614f3a80620004d46000396000f3fe6080604052600436106101f3576000357c010000000000000000000000000000000000000000000000000000000090048063112940f9146101f8578063149fd3a91461024957806317d4a4911461028457806324b62b5b146102ed57806329d78328146103325780632d9235611461036d57806341c0e1b5146103b257806349dae766146103c9578063528356ed146104045780635da09b88146104495780635f8a5afa146104b257806361e6982d14610503578063644241db1461051a5780636467a6d51461053157806364c930041461056c57806366225ff9146105a7578063715018a6146107a65780637250e224146107bd57806372cf20091461080e57806377c459131461083c578063834ff73914610aa85780638da5cb5b14610b115780638ec4f50514610b685780638f0c86fa14610bb95780638f32d59b14610c225780638fab591714610c51578063a26be99914610ca2578063a71bbfd514610cdd578063afe522b414610d46578063b79ff79714610d81578063bdd8a6a814610d98578063bed4b50f146110e6578063cc7b439f14611114578063db0e6a2f14611159578063de07f34e14611170578063e7f89c8914611187578063e7fb74c7146111c2578063efef39a1146111f0578063f19694411461121e578063f2fde38b14611259578063f61c899a146112aa575b600080fd5b34801561020457600080fd5b506102476004803603602081101561021b57600080fd5b81019080803573ffffffffffffffffffffffffffffffffffffffff1690602001909291905050506112e5565b005b34801561025557600080fd5b506102826004803603602081101561026c57600080fd5b8101908080359060200190929190505050611305565b005b34801561029057600080fd5b506102d3600480360360208110156102a757600080fd5b81019080803573ffffffffffffffffffffffffffffffffffffffff169060200190929190505050611446565b604051808215151515815260200191505060405180910390f35b3480156102f957600080fd5b506103306004803603604081101561031057600080fd5b810190808035906020019092919080359060200190929190505050611463565b005b34801561033e57600080fd5b5061036b6004803603602081101561035557600080fd5b81019080803590602001909291905050506115c1565b005b34801561037957600080fd5b506103b06004803603604081101561039057600080fd5b810190808035906020019092919080359060200190929190505050611703565b005b3480156103be57600080fd5b506103c7611861565b005b3480156103d557600080fd5b50610402600480360360208110156103ec57600080fd5b81019080803590602001909291905050506118b7565b005b34801561041057600080fd5b506104476004803603604081101561042757600080fd5b8101908080359060200190929190803590602001909291905050506119f9565b005b34801561045557600080fd5b506104986004803603602081101561046c57600080fd5b81019080803573ffffffffffffffffffffffffffffffffffffffff169060200190929190505050611b57565b604051808215151515815260200191505060405180910390f35b3480156104be57600080fd5b50610501600480360360208110156104d557600080fd5b81019080803573ffffffffffffffffffffffffffffffffffffffff169060200190929190505050611b74565b005b34801561050f57600080fd5b50610518611b94565b005b34801561052657600080fd5b5061052f611b9f565b005b34801561053d57600080fd5b5061056a6004803603602081101561055457600080fd5b8101908080359060200190929190505050611baa565b005b34801561057857600080fd5b506105a56004803603602081101561058f57600080fd5b8101908080359060200190929190505050611d24565b005b3480156105b357600080fd5b506105e0600480360360208110156105ca57600080fd5b8101908080359060200190929190505050611e66565b604051808c81526020018b81526020018a8152602001806020018060200189815260200188601281111561061057fe5b60ff16815260200187600181111561062457fe5b60ff1681526020018673ffffffffffffffffffffffffffffffffffffffff1673ffffffffffffffffffffffffffffffffffffffff1681526020018573ffffffffffffffffffffffffffffffffffffffff1673ffffffffffffffffffffffffffffffffffffffff1681526020018473ffffffffffffffffffffffffffffffffffffffff1673ffffffffffffffffffffffffffffffffffffffff16815260200183810383528b818151815260200191508051906020019080838360005b838110156106fa5780820151818401526020810190506106df565b50505050905090810190601f1680156107275780820380516001836020036101000a031916815260200191505b5083810382528a818151815260200191508051906020019080838360005b83811015610760578082015181840152602081019050610745565b50505050905090810190601f16801561078d5780820380516001836020036101000a031916815260200191505b509d505050505050505050505050505060405180910390f35b3480156107b257600080fd5b506107bb61255f565b005b3480156107c957600080fd5b5061080c600480360360208110156107e057600080fd5b81019080803573ffffffffffffffffffffffffffffffffffffffff169060200190929190505050612633565b005b61083a6004803603602081101561082457600080fd5b8101908080359060200190929190505050612653565b005b34801561084857600080fd5b506108756004803603602081101561085f57600080fd5b810190808035906020019092919050505061292a565b604051808981526020018881526020018773ffffffffffffffffffffffffffffffffffffffff1673ffffffffffffffffffffffffffffffffffffffff1681526020018673ffffffffffffffffffffffffffffffffffffffff1673ffffffffffffffffffffffffffffffffffffffff16815260200180602001806020018060200180602001858103855289818151815260200191508051906020019080838360005b83811015610931578082015181840152602081019050610916565b50505050905090810190601f16801561095e5780820380516001836020036101000a031916815260200191505b50858103845288818151815260200191508051906020019080838360005b8381101561099757808201518184015260208101905061097c565b50505050905090810190601f1680156109c45780820380516001836020036101000a031916815260200191505b50858103835287818151815260200191508051906020019080838360005b838110156109fd5780820151818401526020810190506109e2565b50505050905090810190601f168015610a2a5780820380516001836020036101000a031916815260200191505b50858103825286818151815260200191508051906020019080838360005b83811015610a63578082015181840152602081019050610a48565b50505050905090810190601f168015610a905780820380516001836020036101000a031916815260200191505b509c5050505050505050505050505060405180910390f35b348015610ab457600080fd5b50610af760048036036020811015610acb57600080fd5b81019080803573ffffffffffffffffffffffffffffffffffffffff169060200190929190505050613008565b604051808215151515815260200191505060405180910390f35b348015610b1d57600080fd5b50610b26613025565b604051808273ffffffffffffffffffffffffffffffffffffffff1673ffffffffffffffffffffffffffffffffffffffff16815260200191505060405180910390f35b348015610b7457600080fd5b50610bb760048036036020811015610b8b57600080fd5b81019080803573ffffffffffffffffffffffffffffffffffffffff16906020019092919050505061304f565b005b348015610bc557600080fd5b50610c0860048036036020811015610bdc57600080fd5b81019080803573ffffffffffffffffffffffffffffffffffffffff16906020019092919050505061306f565b604051808215151515815260200191505060405180910390f35b348015610c2e57600080fd5b50610c3761308c565b604051808215151515815260200191505060405180910390f35b348015610c5d57600080fd5b50610ca060048036036020811015610c7457600080fd5b81019080803573ffffffffffffffffffffffffffffffffffffffff1690602001909291905050506130e4565b005b348015610cae57600080fd5b50610cdb60048036036020811015610cc557600080fd5b8101908080359060200190929190505050613104565b005b348015610ce957600080fd5b50610d2c60048036036020811015610d0057600080fd5b81019080803573ffffffffffffffffffffffffffffffffffffffff169060200190929190505050613246565b604051808215151515815260200191505060405180910390f35b348015610d5257600080fd5b50610d7f60048036036020811015610d6957600080fd5b8101908080359060200190929190505050613263565b005b348015610d8d57600080fd5b50610d966133a5565b005b348015610da457600080fd5b506110e4600480360360e0811015610dbb57600080fd5b8101908080359060200190929190803573ffffffffffffffffffffffffffffffffffffffff16906020019092919080359060200190640100000000811115610e0257600080fd5b820183602082011115610e1457600080fd5b80359060200191846001830284011164010000000083111715610e3657600080fd5b91908080601f016020809104026020016040519081016040528093929190818152602001838380828437600081840152601f19601f82011690508083019250505050505050919291929080359060200190640100000000811115610e9957600080fd5b820183602082011115610eab57600080fd5b80359060200191846001830284011164010000000083111715610ecd57600080fd5b91908080601f016020809104026020016040519081016040528093929190818152602001838380828437600081840152601f19601f82011690508083019250505050505050919291929080359060200190640100000000811115610f3057600080fd5b820183602082011115610f4257600080fd5b80359060200191846001830284011164010000000083111715610f6457600080fd5b91908080601f016020809104026020016040519081016040528093929190818152602001838380828437600081840152601f19601f82011690508083019250505050505050919291929080359060200190640100000000811115610fc757600080fd5b820183602082011115610fd957600080fd5b80359060200191846001830284011164010000000083111715610ffb57600080fd5b91908080601f016020809104026020016040519081016040528093929190818152602001838380828437600081840152601f19601f8201169050808301925050505050505091929192908035906020019064010000000081111561105e57600080fd5b82018360208201111561107057600080fd5b8035906020019184600183028401116401000000008311171561109257600080fd5b91908080601f016020809104026020016040519081016040528093929190818152602001838380828437600081840152601f19601f8201169050808301925050505050505091929192905050506133b0565b005b611112600480360360208110156110fc57600080fd5b81019080803590602001909291905050506138f3565b005b34801561112057600080fd5b506111576004803603604081101561113757600080fd5b810190808035906020019092919080359060200190929190505050613bca565b005b34801561116557600080fd5b5061116e613d28565b005b34801561117c57600080fd5b50611185613d33565b005b34801561119357600080fd5b506111c0600480360360208110156111aa57600080fd5b8101908080359060200190929190505050613d3e565b005b6111ee600480360360208110156111d857600080fd5b8101908080359060200190929190505050613e80565b005b61121c6004803603602081101561120657600080fd5b8101908080359060200190929190505050614157565b005b34801561122a57600080fd5b506112576004803603602081101561124157600080fd5b810190808035906020019092919050505061442e565b005b34801561126557600080fd5b506112a86004803603602081101561127c57600080fd5b81019080803573ffffffffffffffffffffffffffffffffffffffff16906020019092919050505061456f565b005b3480156112b657600080fd5b506112e3600480360360208110156112cd57600080fd5b810190808035906020019092919050505061458e565b005b6112ee33613008565b15156112f957600080fd5b611302816146d0565b50565b806007601281111561131357fe5b60086000838152602001908152602001600020600b0160009054906101000a900460ff16601281111561134257fe5b14151561134e57600080fd5b61135733611446565b151561136257600080fd5b6008600083815260200190815260200160002060020160009054906101000a900473ffffffffffffffffffffffffffffffffffffffff168073ffffffffffffffffffffffffffffffffffffffff163373ffffffffffffffffffffffffffffffffffffffff161415156113d357600080fd5b6008806000858152602001908152602001600020600b0160006101000a81548160ff0219169083601281111561140557fe5b02179055507fd387ba7c66ff37ae33b5cbb19fe94bcbfe666ea31635889fba1abc7198c2f1bd836040518082815260200191505060405180910390a1505050565b600061145c82600161472a90919063ffffffff16565b9050919050565b816008601281111561147157fe5b60086000838152602001908152602001600020600b0160009054906101000a900460ff1660128111156114a057fe5b1415156114ac57600080fd5b6114b533611446565b15156114c057600080fd5b6008600084815260200190815260200160002060020160009054906101000a900473ffffffffffffffffffffffffffffffffffffffff168073ffffffffffffffffffffffffffffffffffffffff163373ffffffffffffffffffffffffffffffffffffffff1614151561153157600080fd5b8260086000868152602001908152602001600020600a0181905550600960086000868152602001908152602001600020600b0160006101000a81548160ff0219169083601281111561157f57fe5b02179055507faec623c8803eb3c795344cb3d2178da45139e85d984a1dc348cf9dc8bd7ff160846040518082815260200191505060405180910390a150505050565b80601160128111156115cf57fe5b60086000838152602001908152602001600020600b0160009054906101000a900460ff1660128111156115fe57fe5b14151561160a57600080fd5b61161333613008565b151561161e57600080fd5b6008600083815260200190815260200160002060020160009054906101000a900473ffffffffffffffffffffffffffffffffffffffff168073ffffffffffffffffffffffffffffffffffffffff163373ffffffffffffffffffffffffffffffffffffffff1614151561168f57600080fd5b601260086000858152602001908152602001600020600b0160006101000a81548160ff021916908360128111156116c257fe5b02179055507fbab163f2da28430bab730ae05df46dce1bd9afc246c0c127134bfe9dc18e053c836040518082815260200191505060405180910390a1505050565b816002601281111561171157fe5b60086000838152602001908152602001600020600b0160009054906101000a900460ff16601281111561174057fe5b14151561174c57600080fd5b61175533613246565b151561176057600080fd5b6008600084815260200190815260200160002060030160009054906101000a900473ffffffffffffffffffffffffffffffffffffffff168073ffffffffffffffffffffffffffffffffffffffff163373ffffffffffffffffffffffffffffffffffffffff161415156117d157600080fd5b8260086000868152602001908152602001600020600a0181905550600360086000868152602001908152602001600020600b0160006101000a81548160ff0219169083601281111561181f57fe5b02179055507fa96ae0fc3224ebd79eebfe54bd130cc9cb94416cddd1f2386115e00b72532468846040518082815260200191505060405180910390a150505050565b611869613025565b73ffffffffffffffffffffffffffffffffffffffff163373ffffffffffffffffffffffffffffffffffffffff1614156118b5573373ffffffffffffffffffffffffffffffffffffffff16ff5b565b80600060128111156118c557fe5b60086000838152602001908152602001600020600b0160009054906101000a900460ff1660128111156118f457fe5b14151561190057600080fd5b6008600083815260200190815260200160002060030160009054906101000a900473ffffffffffffffffffffffffffffffffffffffff168073ffffffffffffffffffffffffffffffffffffffff163373ffffffffffffffffffffffffffffffffffffffff1614151561197157600080fd5b61197a33613246565b151561198557600080fd5b600160086000858152602001908152602001600020600b0160006101000a81548160ff021916908360128111156119b857fe5b02179055507f5afe3b1bf87069693c075da5c22a98d63d1aef98a30dbbe538d0781a98b77ee5836040518082815260200191505060405180910390a1505050565b81600b6012811115611a0757fe5b60086000838152602001908152602001600020600b0160009054906101000a900460ff166012811115611a3657fe5b141515611a4257600080fd5b611a4b3361306f565b1515611a5657600080fd5b6008600084815260200190815260200160002060020160009054906101000a900473ffffffffffffffffffffffffffffffffffffffff168073ffffffffffffffffffffffffffffffffffffffff163373ffffffffffffffffffffffffffffffffffffffff16141515611ac757600080fd5b8260086000868152602001908152602001600020600a0181905550600c60086000868152602001908152602001600020600b0160006101000a81548160ff02191690836012811115611b1557fe5b02179055507f539b4a835a8a5d1bc5756a9f146e2bfeaa6bd6b1fa77a7631c0a5154c86cdd03846040518082815260200191505060405180910390a150505050565b6000611b6d82600361472a90919063ffffffff16565b9050919050565b611b7d33611446565b1515611b8857600080fd5b611b91816147be565b50565b611b9d33614818565b565b611ba833614872565b565b8060066012811115611bb857fe5b60086000838152602001908152602001600020600b0160009054906101000a900460ff166012811115611be757fe5b141515611bf357600080fd5b611bfc33611446565b1515611c0757600080fd5b6008600083815260200190815260200160002060020160009054906101000a900473ffffffffffffffffffffffffffffffffffffffff168073ffffffffffffffffffffffffffffffffffffffff163373ffffffffffffffffffffffffffffffffffffffff16141515611c7857600080fd5b600760086000858152602001908152602001600020600b0160006101000a81548160ff02191690836012811115611cab57fe5b0217905550600160086000858152602001908152602001600020600b0160016101000a81548160ff02191690836001811115611ce357fe5b02179055507fd29d8a68ca7c8c74be5579719d445aabfe230ed6e6a83aff475a663500eb7609836040518082815260200191505060405180910390a1505050565b80600a6012811115611d3257fe5b60086000838152602001908152602001600020600b0160009054906101000a900460ff166012811115611d6157fe5b141515611d6d57600080fd5b611d7633611446565b1515611d8157600080fd5b60086000838152602001908152602001600020600b0160029054906101000a900473ffffffffffffffffffffffffffffffffffffffff168073ffffffffffffffffffffffffffffffffffffffff163373ffffffffffffffffffffffffffffffffffffffff16141515611df257600080fd5b600b60086000858152602001908152602001600020600b0160006101000a81548160ff02191690836012811115611e2557fe5b02179055507f25727bef8a186dd95a062151451f2d651551b53124c18208d7653b1217ae31ba836040518082815260200191505060405180910390a1505050565b6000806000606080600080600080600080611e7f614d43565b600860008e8152602001908152602001600020610240604051908101604052908160008201548152602001600182015481526020016002820160009054906101000a900473ffffffffffffffffffffffffffffffffffffffff1673ffffffffffffffffffffffffffffffffffffffff1673ffffffffffffffffffffffffffffffffffffffff1681526020016003820160009054906101000a900473ffffffffffffffffffffffffffffffffffffffff1673ffffffffffffffffffffffffffffffffffffffff1673ffffffffffffffffffffffffffffffffffffffff168152602001600482018054600181600116156101000203166002900480601f016020809104026020016040519081016040528092919081815260200182805460018160011615610100020316600290048015611ff85780601f10611fcd57610100808354040283529160200191611ff8565b820191906000526020600020905b815481529060010190602001808311611fdb57829003601f168201915b50505050508152602001600582018054600181600116156101000203166002900480601f01602080910402602001604051908101604052809291908181526020018280546001816001161561010002031660029004801561209a5780601f1061206f5761010080835404028352916020019161209a565b820191906000526020600020905b81548152906001019060200180831161207d57829003601f168201915b50505050508152602001600682018054600181600116156101000203166002900480601f01602080910402602001604051908101604052809291908181526020018280546001816001161561010002031660029004801561213c5780601f106121115761010080835404028352916020019161213c565b820191906000526020600020905b81548152906001019060200180831161211f57829003601f168201915b50505050508152602001600782018054600181600116156101000203166002900480601f0160208091040260200160405190810160405280929190818152602001828054600181600116156101000203166002900480156121de5780601f106121b3576101008083540402835291602001916121de565b820191906000526020600020905b8154815290600101906020018083116121c157829003601f168201915b5050505050815260200160088201548152602001600982018054600181600116156101000203166002900480601f01602080910402602001604051908101604052809291908181526020018280546001816001161561010002031660029004801561228a5780601f1061225f5761010080835404028352916020019161228a565b820191906000526020600020905b81548152906001019060200180831161226d57829003601f168201915b50505050508152602001600a8201548152602001600b820160009054906101000a900460ff1660128111156122bb57fe5b60128111156122c657fe5b8152602001600b820160019054906101000a900460ff1660018111156122e857fe5b60018111156122f357fe5b8152602001600b820160029054906101000a900473ffffffffffffffffffffffffffffffffffffffff1673ffffffffffffffffffffffffffffffffffffffff1673ffffffffffffffffffffffffffffffffffffffff168152602001600c82018054600181600116156101000203166002900480601f0160208091040260200160405190810160405280929190818152602001828054600181600116156101000203166002900480156123e65780601f106123bb576101008083540402835291602001916123e6565b820191906000526020600020905b8154815290600101906020018083116123c957829003601f168201915b50505050508152602001600d820160009054906101000a900473ffffffffffffffffffffffffffffffffffffffff1673ffffffffffffffffffffffffffffffffffffffff1673ffffffffffffffffffffffffffffffffffffffff168152602001600e820160009054906101000a900473ffffffffffffffffffffffffffffffffffffffff1673ffffffffffffffffffffffffffffffffffffffff1673ffffffffffffffffffffffffffffffffffffffff168152602001600f820160009054906101000a900473ffffffffffffffffffffffffffffffffffffffff1673ffffffffffffffffffffffffffffffffffffffff1673ffffffffffffffffffffffffffffffffffffffff1681525050905080600001518160200151826101000151836101200151846101c00151856101400151866101600151876101800151886101e001518961020001518a61022001518797508696509b509b509b509b509b509b509b509b509b509b509b505091939597999b90929496989a50565b61256761308c565b151561257257600080fd5b600073ffffffffffffffffffffffffffffffffffffffff16600560009054906101000a900473ffffffffffffffffffffffffffffffffffffffff1673ffffffffffffffffffffffffffffffffffffffff167f8be0079c531659141344cd1fd0a4f28419497f9722a3daafe3b4186f6b6457e060405160405180910390a36000600560006101000a81548173ffffffffffffffffffffffffffffffffffffffff021916908373ffffffffffffffffffffffffffffffffffffffff160217905550565b61263c3361306f565b151561264757600080fd5b612650816148cc565b50565b80600c601281111561266157fe5b60086000838152602001908152602001600020600b0160009054906101000a900460ff16601281111561269057fe5b14151561269c57600080fd5b6126a533611b57565b15156126b057600080fd5b60086000838152602001908152602001600020600a01548034101515156126d657600080fd5b82336008600086815260200190815260200160002060020160006101000a81548173ffffffffffffffffffffffffffffffffffffffff021916908373ffffffffffffffffffffffffffffffffffffffff1602179055503360086000868152602001908152602001600020600e0160006101000a81548173ffffffffffffffffffffffffffffffffffffffff021916908373ffffffffffffffffffffffffffffffffffffffff160217905550600d60086000868152602001908152602001600020600b0160006101000a81548160ff021916908360128111156127b457fe5b021790555060086000858152602001908152602001600020600d0160009054906101000a900473ffffffffffffffffffffffffffffffffffffffff1673ffffffffffffffffffffffffffffffffffffffff166108fc60086000878152602001908152602001600020600a01549081150290604051600060405180830381858888f1935050505015801561284b573d6000803e3d6000fd5b507f05421734cbd6ccee3e82115b938259200b4731bed9fa27bc7c3365991f8da6ad846040518082815260200191505060405180910390a1600060086000838152602001908152602001600020600a015490506000813403905060086000848152602001908152602001600020600f0160009054906101000a900473ffffffffffffffffffffffffffffffffffffffff1673ffffffffffffffffffffffffffffffffffffffff166108fc829081150290604051600060405180830381858888f19350505050158015612921573d6000803e3d6000fd5b50505050505050565b60008060008060608060608061293e614d43565b600860008b8152602001908152602001600020610240604051908101604052908160008201548152602001600182015481526020016002820160009054906101000a900473ffffffffffffffffffffffffffffffffffffffff1673ffffffffffffffffffffffffffffffffffffffff1673ffffffffffffffffffffffffffffffffffffffff1681526020016003820160009054906101000a900473ffffffffffffffffffffffffffffffffffffffff1673ffffffffffffffffffffffffffffffffffffffff1673ffffffffffffffffffffffffffffffffffffffff168152602001600482018054600181600116156101000203166002900480601f016020809104026020016040519081016040528092919081815260200182805460018160011615610100020316600290048015612ab75780601f10612a8c57610100808354040283529160200191612ab7565b820191906000526020600020905b815481529060010190602001808311612a9a57829003601f168201915b50505050508152602001600582018054600181600116156101000203166002900480601f016020809104026020016040519081016040528092919081815260200182805460018160011615610100020316600290048015612b595780601f10612b2e57610100808354040283529160200191612b59565b820191906000526020600020905b815481529060010190602001808311612b3c57829003601f168201915b50505050508152602001600682018054600181600116156101000203166002900480601f016020809104026020016040519081016040528092919081815260200182805460018160011615610100020316600290048015612bfb5780601f10612bd057610100808354040283529160200191612bfb565b820191906000526020600020905b815481529060010190602001808311612bde57829003601f168201915b50505050508152602001600782018054600181600116156101000203166002900480601f016020809104026020016040519081016040528092919081815260200182805460018160011615610100020316600290048015612c9d5780601f10612c7257610100808354040283529160200191612c9d565b820191906000526020600020905b815481529060010190602001808311612c8057829003601f168201915b5050505050815260200160088201548152602001600982018054600181600116156101000203166002900480601f016020809104026020016040519081016040528092919081815260200182805460018160011615610100020316600290048015612d495780601f10612d1e57610100808354040283529160200191612d49565b820191906000526020600020905b815481529060010190602001808311612d2c57829003601f168201915b50505050508152602001600a8201548152602001600b820160009054906101000a900460ff166012811115612d7a57fe5b6012811115612d8557fe5b8152602001600b820160019054906101000a900460ff166001811115612da757fe5b6001811115612db257fe5b8152602001600b820160029054906101000a900473ffffffffffffffffffffffffffffffffffffffff1673ffffffffffffffffffffffffffffffffffffffff1673ffffffffffffffffffffffffffffffffffffffff168152602001600c82018054600181600116156101000203166002900480601f016020809104026020016040519081016040528092919081815260200182805460018160011615610100020316600290048015612ea55780601f10612e7a57610100808354040283529160200191612ea5565b820191906000526020600020905b815481529060010190602001808311612e8857829003601f168201915b50505050508152602001600d820160009054906101000a900473ffffffffffffffffffffffffffffffffffffffff1673ffffffffffffffffffffffffffffffffffffffff1673ffffffffffffffffffffffffffffffffffffffff168152602001600e820160009054906101000a900473ffffffffffffffffffffffffffffffffffffffff1673ffffffffffffffffffffffffffffffffffffffff1673ffffffffffffffffffffffffffffffffffffffff168152602001600f820160009054906101000a900473ffffffffffffffffffffffffffffffffffffffff1673ffffffffffffffffffffffffffffffffffffffff1673ffffffffffffffffffffffffffffffffffffffff16815250509050806000015181602001518260400151836060015184608001518560a001518660c001518760e001518595508494508393508292508191508090509850985098509850985098509850985050919395975091939597565b600061301e82600461472a90919063ffffffff16565b9050919050565b6000600560009054906101000a900473ffffffffffffffffffffffffffffffffffffffff16905090565b61305833611b57565b151561306357600080fd5b61306c81614926565b50565b600061308582600261472a90919063ffffffff16565b9050919050565b6000600560009054906101000a900473ffffffffffffffffffffffffffffffffffffffff1673ffffffffffffffffffffffffffffffffffffffff163373ffffffffffffffffffffffffffffffffffffffff1614905090565b6130ed33613246565b15156130f857600080fd5b61310181614980565b50565b806005601281111561311257fe5b60086000838152602001908152602001600020600b0160009054906101000a900460ff16601281111561314157fe5b14151561314d57600080fd5b61315633611446565b151561316157600080fd5b60086000838152602001908152602001600020600b0160029054906101000a900473ffffffffffffffffffffffffffffffffffffffff168073ffffffffffffffffffffffffffffffffffffffff163373ffffffffffffffffffffffffffffffffffffffff161415156131d257600080fd5b600660086000858152602001908152602001600020600b0160006101000a81548160ff0219169083601281111561320557fe5b02179055507fa8142743f8f70a4c26f3691cf4ed59718381fb2f18070ec52be1f1022d855557836040518082815260200191505060405180910390a1505050565b600061325c82600061472a90919063ffffffff16565b9050919050565b80600d601281111561327157fe5b60086000838152602001908152602001600020600b0160009054906101000a900460ff1660128111156132a057fe5b1415156132ac57600080fd5b6132b53361306f565b15156132c057600080fd5b60086000838152602001908152602001600020600d0160009054906101000a900473ffffffffffffffffffffffffffffffffffffffff168073ffffffffffffffffffffffffffffffffffffffff163373ffffffffffffffffffffffffffffffffffffffff1614151561333157600080fd5b600e60086000858152602001908152602001600020600b0160006101000a81548160ff0219169083601281111561336457fe5b02179055507fc5c33776d405e5686e4386e1ef31a65cf6195e4f7ceb8808ab64d05b6ccbc2a6836040518082815260200191505060405180910390a1505050565b6133ae336149da565b565b858073ffffffffffffffffffffffffffffffffffffffff163373ffffffffffffffffffffffffffffffffffffffff161415156133eb57600080fd5b6133f433613246565b15156133ff57600080fd5b6000881415801561342657506000600860008a815260200190815260200160002060010154145b151561349a576040517f08c379a00000000000000000000000000000000000000000000000000000000081526004018080602001828103825260188152602001807f546869732055504320616c7265616479206578697374732e000000000000000081525060200191505060405180910390fd5b6134a2614d43565b6007548160000181815250508881602001818152505033816040019073ffffffffffffffffffffffffffffffffffffffff16908173ffffffffffffffffffffffffffffffffffffffff168152505033816060019073ffffffffffffffffffffffffffffffffffffffff16908173ffffffffffffffffffffffffffffffffffffffff1681525050868160800181905250858160a00181905250848160c00181905250838160e001819052508281610120018190525066038d7ea4c680008901816101000181815250506000816101600190601281111561357d57fe5b9081601281111561358a57fe5b81525050600081610180019060018111156135a157fe5b908160018111156135ae57fe5b8152505080600860008b8152602001908152602001600020600082015181600001556020820151816001015560408201518160020160006101000a81548173ffffffffffffffffffffffffffffffffffffffff021916908373ffffffffffffffffffffffffffffffffffffffff16021790555060608201518160030160006101000a81548173ffffffffffffffffffffffffffffffffffffffff021916908373ffffffffffffffffffffffffffffffffffffffff1602179055506080820151816004019080519060200190613684929190614e69565b5060a08201518160050190805190602001906136a1929190614e69565b5060c08201518160060190805190602001906136be929190614e69565b5060e08201518160070190805190602001906136db929190614e69565b506101008201518160080155610120820151816009019080519060200190613704929190614e69565b5061014082015181600a015561016082015181600b0160006101000a81548160ff0219169083601281111561373557fe5b021790555061018082015181600b0160016101000a81548160ff0219169083600181111561375f57fe5b02179055506101a082015181600b0160026101000a81548173ffffffffffffffffffffffffffffffffffffffff021916908373ffffffffffffffffffffffffffffffffffffffff1602179055506101c082015181600c0190805190602001906137c9929190614e69565b506101e082015181600d0160006101000a81548173ffffffffffffffffffffffffffffffffffffffff021916908373ffffffffffffffffffffffffffffffffffffffff16021790555061020082015181600e0160006101000a81548173ffffffffffffffffffffffffffffffffffffffff021916908373ffffffffffffffffffffffffffffffffffffffff16021790555061022082015181600f0160006101000a81548173ffffffffffffffffffffffffffffffffffffffff021916908373ffffffffffffffffffffffffffffffffffffffff1602179055509050506001600754016007819055507f8e55ccfc9778ff8eba1646d765cf1982537ce0f9257054a17b48aad745250183896040518082815260200191505060405180910390a1505050505050505050565b806009601281111561390157fe5b60086000838152602001908152602001600020600b0160009054906101000a900460ff16601281111561393057fe5b14151561393c57600080fd5b6139453361306f565b151561395057600080fd5b60086000838152602001908152602001600020600a015480341015151561397657600080fd5b82336008600086815260200190815260200160002060020160006101000a81548173ffffffffffffffffffffffffffffffffffffffff021916908373ffffffffffffffffffffffffffffffffffffffff1602179055503360086000868152602001908152602001600020600d0160006101000a81548173ffffffffffffffffffffffffffffffffffffffff021916908373ffffffffffffffffffffffffffffffffffffffff160217905550600a60086000868152602001908152602001600020600b0160006101000a81548160ff02191690836012811115613a5457fe5b021790555060086000858152602001908152602001600020600b0160029054906101000a900473ffffffffffffffffffffffffffffffffffffffff1673ffffffffffffffffffffffffffffffffffffffff166108fc60086000878152602001908152602001600020600a01549081150290604051600060405180830381858888f19350505050158015613aeb573d6000803e3d6000fd5b507f4328f1523c24278e57f7bf2678f700578731296056751fe500cd6f53b1a5d952846040518082815260200191505060405180910390a1600060086000838152602001908152602001600020600a015490506000813403905060086000848152602001908152602001600020600f0160009054906101000a900473ffffffffffffffffffffffffffffffffffffffff1673ffffffffffffffffffffffffffffffffffffffff166108fc829081150290604051600060405180830381858888f19350505050158015613bc1573d6000803e3d6000fd5b50505050505050565b81600e6012811115613bd857fe5b60086000838152602001908152602001600020600b0160009054906101000a900460ff166012811115613c0757fe5b141515613c1357600080fd5b613c1c33611b57565b1515613c2757600080fd5b6008600084815260200190815260200160002060020160009054906101000a900473ffffffffffffffffffffffffffffffffffffffff168073ffffffffffffffffffffffffffffffffffffffff163373ffffffffffffffffffffffffffffffffffffffff16141515613c9857600080fd5b8260086000868152602001908152602001600020600a0181905550600f60086000868152602001908152602001600020600b0160006101000a81548160ff02191690836012811115613ce657fe5b02179055507f59e7ad085805e2b02ad4b0f8033bd75e7ee4c8cd43f996267463585e35896252846040518082815260200191505060405180910390a150505050565b613d3133614a34565b565b613d3c33614a8e565b565b8060016012811115613d4c57fe5b60086000838152602001908152602001600020600b0160009054906101000a900460ff166012811115613d7b57fe5b141515613d8757600080fd5b613d9033613246565b1515613d9b57600080fd5b6008600083815260200190815260200160002060030160009054906101000a900473ffffffffffffffffffffffffffffffffffffffff168073ffffffffffffffffffffffffffffffffffffffff163373ffffffffffffffffffffffffffffffffffffffff16141515613e0c57600080fd5b600260086000858152602001908152602001600020600b0160006101000a81548160ff02191690836012811115613e3f57fe5b02179055507f0c70d89b176b3792b9ff1a750105ae23454802a52d42ea9c264300e29fd8a3e1836040518082815260200191505060405180910390a1505050565b8060036012811115613e8e57fe5b60086000838152602001908152602001600020600b0160009054906101000a900460ff166012811115613ebd57fe5b141515613ec957600080fd5b613ed233611446565b1515613edd57600080fd5b60086000838152602001908152602001600020600a0154803410151515613f0357600080fd5b82336008600086815260200190815260200160002060020160006101000a81548173ffffffffffffffffffffffffffffffffffffffff021916908373ffffffffffffffffffffffffffffffffffffffff1602179055503360086000868152602001908152602001600020600b0160026101000a81548173ffffffffffffffffffffffffffffffffffffffff021916908373ffffffffffffffffffffffffffffffffffffffff160217905550600460086000868152602001908152602001600020600b0160006101000a81548160ff02191690836012811115613fe157fe5b02179055506008600085815260200190815260200160002060030160009054906101000a900473ffffffffffffffffffffffffffffffffffffffff1673ffffffffffffffffffffffffffffffffffffffff166108fc60086000878152602001908152602001600020600a01549081150290604051600060405180830381858888f19350505050158015614078573d6000803e3d6000fd5b507f92f64ca637d023f354075a4be751b169c1a8a9ccb6d33cdd0cb3520543995727846040518082815260200191505060405180910390a1600060086000838152602001908152602001600020600a015490506000813403905060086000848152602001908152602001600020600f0160009054906101000a900473ffffffffffffffffffffffffffffffffffffffff1673ffffffffffffffffffffffffffffffffffffffff166108fc829081150290604051600060405180830381858888f1935050505015801561414e573d6000803e3d6000fd5b50505050505050565b80600f601281111561416557fe5b60086000838152602001908152602001600020600b0160009054906101000a900460ff16601281111561419457fe5b1415156141a057600080fd5b6141a933613008565b15156141b457600080fd5b60086000838152602001908152602001600020600a01548034101515156141da57600080fd5b82336008600086815260200190815260200160002060020160006101000a81548173ffffffffffffffffffffffffffffffffffffffff021916908373ffffffffffffffffffffffffffffffffffffffff1602179055503360086000868152602001908152602001600020600f0160006101000a81548173ffffffffffffffffffffffffffffffffffffffff021916908373ffffffffffffffffffffffffffffffffffffffff160217905550601060086000868152602001908152602001600020600b0160006101000a81548160ff021916908360128111156142b857fe5b021790555060086000858152602001908152602001600020600e0160009054906101000a900473ffffffffffffffffffffffffffffffffffffffff1673ffffffffffffffffffffffffffffffffffffffff166108fc60086000878152602001908152602001600020600a01549081150290604051600060405180830381858888f1935050505015801561434f573d6000803e3d6000fd5b507f653d56639fee6b566a5c804764e9689de38645f0b733df89a36a1b7b42173dd8846040518082815260200191505060405180910390a1600060086000838152602001908152602001600020600a015490506000813403905060086000848152602001908152602001600020600f0160009054906101000a900473ffffffffffffffffffffffffffffffffffffffff1673ffffffffffffffffffffffffffffffffffffffff166108fc829081150290604051600060405180830381858888f19350505050158015614425573d6000803e3d6000fd5b50505050505050565b806010601281111561443c57fe5b60086000838152602001908152602001600020600b0160009054906101000a900460ff16601281111561446b57fe5b14151561447757600080fd5b61448033611b57565b151561448b57600080fd5b60086000838152602001908152602001600020600e0160009054906101000a900473ffffffffffffffffffffffffffffffffffffffff168073ffffffffffffffffffffffffffffffffffffffff163373ffffffffffffffffffffffffffffffffffffffff161415156144fc57600080fd5b601160086000858152602001908152602001600020600b0160006101000a81548160ff0219169083601281111561452f57fe5b02179055507e114a6fadb43e05c82c84612f44de7a592a32426b619579ae7bb4f3815616c7836040518082815260200191505060405180910390a1505050565b61457761308c565b151561458257600080fd5b61458b81614ae8565b50565b806004601281111561459c57fe5b60086000838152602001908152602001600020600b0160009054906101000a900460ff1660128111156145cb57fe5b1415156145d757600080fd5b6145e033613246565b15156145eb57600080fd5b6008600083815260200190815260200160002060030160009054906101000a900473ffffffffffffffffffffffffffffffffffffffff168073ffffffffffffffffffffffffffffffffffffffff163373ffffffffffffffffffffffffffffffffffffffff1614151561465c57600080fd5b600560086000858152602001908152602001600020600b0160006101000a81548160ff0219169083601281111561468f57fe5b02179055507ff00b9a5725b80c54016f42114f6ed7792d22eecb116011c4afac29c57bef6c95836040518082815260200191505060405180910390a1505050565b6146e4816004614be490919063ffffffff16565b8073ffffffffffffffffffffffffffffffffffffffff167f28b26e7a3d20aedbc5f8f2ebf7da671c0491723a2b78f47a097b0e46dee0714260405160405180910390a250565b60008073ffffffffffffffffffffffffffffffffffffffff168273ffffffffffffffffffffffffffffffffffffffff161415151561476757600080fd5b8260000160008373ffffffffffffffffffffffffffffffffffffffff1673ffffffffffffffffffffffffffffffffffffffff16815260200190815260200160002060009054906101000a900460ff16905092915050565b6147d2816001614be490919063ffffffff16565b8073ffffffffffffffffffffffffffffffffffffffff167f561138658ca49a8540dc70dcfe64c9026c1c5b9344642242dd6562970f9c127860405160405180910390a250565b61482c816004614c9490919063ffffffff16565b8073ffffffffffffffffffffffffffffffffffffffff167fe3f5ed5f263f1f01764a96edfc7d025f511ec5f7d180e8816908b78bcf74f09860405160405180910390a250565b614886816002614c9490919063ffffffff16565b8073ffffffffffffffffffffffffffffffffffffffff167f126174f6cf49c81cdb4a9214c6b8f037bef55b4ec31e4fc776cea2a1c8a88d5960405160405180910390a250565b6148e0816002614be490919063ffffffff16565b8073ffffffffffffffffffffffffffffffffffffffff167fddbf200aa634dc3fb81cfd68583dd1040d1c751d335e1d86b631bde3e977fea860405160405180910390a250565b61493a816003614be490919063ffffffff16565b8073ffffffffffffffffffffffffffffffffffffffff167f71ae26cad02663e3d92efd6ec56031a80d74a20c0ab4183faa8bf262261c9baa60405160405180910390a250565b614994816000614be490919063ffffffff16565b8073ffffffffffffffffffffffffffffffffffffffff167f2a6b352b84affc85ec0ab54b71a09c17830148eb8a1c5aeabf5cd5e73ee7c24860405160405180910390a250565b6149ee816000614c9490919063ffffffff16565b8073ffffffffffffffffffffffffffffffffffffffff167f78af5e2bc1f182518b5a494aa807f782e7a2026ab85683d13ce592896a52922f60405160405180910390a250565b614a48816003614c9490919063ffffffff16565b8073ffffffffffffffffffffffffffffffffffffffff167fdb7176e79cffef81cb01767dd0447a0b24bb72ca9778d4b245581086b2a7e6db60405160405180910390a250565b614aa2816001614c9490919063ffffffff16565b8073ffffffffffffffffffffffffffffffffffffffff167f2fed5abf6a80d6dfe30b4895481b2fc5d7dce5f8f7b931832f4a2947d5040c7f60405160405180910390a250565b600073ffffffffffffffffffffffffffffffffffffffff168173ffffffffffffffffffffffffffffffffffffffff1614151515614b2457600080fd5b8073ffffffffffffffffffffffffffffffffffffffff16600560009054906101000a900473ffffffffffffffffffffffffffffffffffffffff1673ffffffffffffffffffffffffffffffffffffffff167f8be0079c531659141344cd1fd0a4f28419497f9722a3daafe3b4186f6b6457e060405160405180910390a380600560006101000a81548173ffffffffffffffffffffffffffffffffffffffff021916908373ffffffffffffffffffffffffffffffffffffffff16021790555050565b600073ffffffffffffffffffffffffffffffffffffffff168173ffffffffffffffffffffffffffffffffffffffff1614151515614c2057600080fd5b614c2a828261472a565b151515614c3657600080fd5b60018260000160008373ffffffffffffffffffffffffffffffffffffffff1673ffffffffffffffffffffffffffffffffffffffff16815260200190815260200160002060006101000a81548160ff0219169083151502179055505050565b600073ffffffffffffffffffffffffffffffffffffffff168173ffffffffffffffffffffffffffffffffffffffff1614151515614cd057600080fd5b614cda828261472a565b1515614ce557600080fd5b60008260000160008373ffffffffffffffffffffffffffffffffffffffff1673ffffffffffffffffffffffffffffffffffffffff16815260200190815260200160002060006101000a81548160ff0219169083151502179055505050565b610240604051908101604052806000815260200160008152602001600073ffffffffffffffffffffffffffffffffffffffff168152602001600073ffffffffffffffffffffffffffffffffffffffff1681526020016060815260200160608152602001606081526020016060815260200160008152602001606081526020016000815260200160006012811115614dd657fe5b815260200160006001811115614de857fe5b8152602001600073ffffffffffffffffffffffffffffffffffffffff16815260200160608152602001600073ffffffffffffffffffffffffffffffffffffffff168152602001600073ffffffffffffffffffffffffffffffffffffffff168152602001600073ffffffffffffffffffffffffffffffffffffffff1681525090565b828054600181600116156101000203166002900490600052602060002090601f016020900481019282601f10614eaa57805160ff1916838001178555614ed8565b82800160010185558215614ed8579182015b82811115614ed7578251825591602001919060010190614ebc565b5b509050614ee59190614ee9565b5090565b614f0b91905b80821115614f07576000816000905550600101614eef565b5090565b9056fea165627a7a7230582033e18845df6011de1d72bb5b44d2d047740ef59b69a223098cc164d1d557ac3b0029",
  "source": "pragma solidity ^0.5.1;\r\n\r\nimport '../AccessControl/AccessControl.sol';\r\nimport '../Core/Ownable.sol';\r\n\r\n// Define a contract 'Supplychain'\r\ncontract SupplyChain is AccessControl, Ownable {\r\n\r\n  // Define a variable called 'upc' for Universal Product Code (UPC)\r\n  uint  upc;\r\n\r\n  // Define a variable called 'sku' for Stock Keeping Unit (SKU)\r\n  uint  sku;\r\n\r\n  // Define a public mapping 'items' that maps the UPC to an Item.\r\n  mapping (uint => Item) items;\r\n\r\n  // Define a public mapping 'itemsHistory' that maps the UPC to an array of TxHash, \r\n  // that track its journey through the supply chain -- to be sent from DApp.\r\n  mapping (uint => string[]) itemsHistory;\r\n  \r\n  // Define enum 'State' with the following values:\r\n  enum State \r\n  { \r\n    Harvested,                  // 0\r\n    Processed,                  // 1\r\n    Packaged,                   // 2\r\n    ForSale,                    // 3\r\n    Sold,                       // 4\r\n    Shipped,                    // 5\r\n    Received,                   // 6\r\n    Manufactured,               // 7\r\n    PackagedByManufacturer,     // 8\r\n    ForSaleByManufacturer,      // 9\r\n    SoldByManufacturer,         // 10\r\n    ShippedByManufacturer,      // 11\r\n    ForSaleByDistributor,       // 12\r\n    SoldByDistributor,          // 13\r\n    ShippedByDistributor,       // 14\r\n    ForSaleByRetailer,          // 15\r\n    Purchased,                  // 16\r\n    ShippedByRetailer,          // 17\r\n    ReceivedByConsumer          // 18\r\n    }\r\n    \r\n    enum MaterialState {\r\n        Lumber,     // 1\r\n        Product     // 2\r\n    }\r\n\r\n  State constant defaultState = State.Harvested;\r\n  MaterialState constant defaultMaterialState = MaterialState.Lumber;\r\n\r\n  // Define a struct 'Item' with the following fields:\r\n  struct Item {\r\n    uint    sku;  // Stock Keeping Unit (SKU)\r\n    uint    upc; // Universal Product Code (UPC), generated by the Farmer, goes on the package, can be verified by the Consumer\r\n    address payable ownerID;  // Metamask-Ethereum address of the current owner as the product moves through 18 stages\r\n    address payable originHarvesterID; // Metamask-Ethereum address of the Harvester\r\n    string  originHarvesterName; // Farmer Name\r\n    string  originHarvesterInformation;  // Farmer Information\r\n    string  originHarvesterLatitude; // Farm Latitude\r\n    string  originHarvesterLongitude;  // Farm Longitude\r\n    uint    productID;  // Product ID potentially a combination of upc + sku\r\n    string  productNotes; // Product Notes\r\n    uint    productPrice; // Product Price\r\n    State   itemState;  // Product State as represented in the enum above\r\n    MaterialState itemState2; // Material State of the product as represented by the enum above\r\n    address payable manufacturerID; // Metamask-Ethereum address of the Manufacturer\r\n    string  productNotesByManufacturer; // Product notes that are added by the Manufacturer\r\n    address payable distributorID;  // Metamask-Ethereum address of the Distributor\r\n    address payable retailerID; // Metamask-Ethereum address of the Retailer\r\n    address payable consumerID; // Metamask-Ethereum address of the Consumer\r\n  }\r\n\r\n  // Define 8 events with the same 8 state values and accept 'upc' as input argument\r\n    event Harvested (uint upc);          \r\n    event Processed (uint upc);            \r\n    event Packaged (uint upc);                \r\n    event ForSale  (uint upc);              \r\n    event Sold (uint upc);                 \r\n    event Shipped (uint upc);               \r\n    event Received (uint upc);                \r\n    event Manufactured (uint upc);           \r\n    event PackagedByManufacturer (uint upc);   \r\n    event ForSaleByManufacturer (uint upc);    \r\n    event SoldByManufacturer (uint upc);      \r\n    event ShippedByManufacturer (uint upc);   \r\n    event ForSaleByDistributor (uint upc);    \r\n    event SoldByDistributor (uint upc);      \r\n    event ShippedByDistributor (uint upc);       \r\n    event ForSaleByRetailer (uint upc);           \r\n    event Purchased (uint upc);                \r\n    event ShippedByRetailer (uint upc);          \r\n    event ReceivedByConsumer (uint upc);                     \r\n\r\n  // Define a modifer that verifies the Caller\r\n  modifier verifyCaller (address _address) {\r\n    require(msg.sender == _address); \r\n    _;\r\n  }\r\n\r\n  // Define a modifier that checks if the paid amount is sufficient to cover the price\r\n  modifier paidEnough(uint _price) { \r\n    require(msg.value >= _price); \r\n    _;\r\n  }\r\n  \r\n  // Define a modifier that checks the price and refunds the remaining balance\r\n  modifier checkValue(uint _upc) {\r\n    _;\r\n    uint _price = items[_upc].productPrice;\r\n    uint amountToReturn = msg.value - _price;\r\n    items[_upc].consumerID.transfer(amountToReturn);\r\n  }\r\n\r\n  // Define a modifier that checks if an item.state of a upc is Harvested\r\n  modifier harvested(uint _upc) {\r\n    require(items[_upc].itemState == State.Harvested);\r\n    _;\r\n  }\r\n\r\n  // Define a modifier that checks if an item.state of a upc is Processed\r\n  modifier processed(uint _upc) {\r\n      require(items[_upc].itemState == State.Processed);\r\n    _;\r\n  }\r\n  \r\n  // Define a modifier that checks if an item.state of a upc is Packed\r\n  modifier packaged(uint _upc) {\r\n      require(items[_upc].itemState == State.Packaged);\r\n    _;\r\n  }\r\n\r\n  // Define a modifier that checks if an item.state of a upc is ForSale\r\n  modifier forSale(uint _upc) {\r\n      require(items[_upc].itemState == State.ForSale);\r\n    _;\r\n  }\r\n\r\n  // Define a modifier that checks if an item.state of a upc is Sold\r\n  modifier sold(uint _upc) {\r\n      require(items[_upc].itemState == State.Sold);\r\n    _;\r\n  }\r\n  \r\n  // Define a modifier that checks if an item.state of a upc is Shipped\r\n  modifier shipped(uint _upc) {\r\n      require(items[_upc].itemState == State.Shipped);\r\n    _;\r\n  }\r\n\r\n  // Define a modifier that checks if an item.state of a upc is Received\r\n  modifier received(uint _upc) {\r\n      require(items[_upc].itemState == State.Received);\r\n    _;\r\n  }\r\n  \r\n  // Define a modifier that checks if an item.state of a upc is Received\r\n  modifier manufactured(uint _upc) {\r\n      require(items[_upc].itemState == State.Manufactured);\r\n    _;\r\n  }\r\n  \r\n  // Define a modifier that checks if an item.state of a upc is Received\r\n  modifier packagedByManufacturer(uint _upc) {\r\n      require(items[_upc].itemState == State.PackagedByManufacturer);\r\n    _;\r\n  }\r\n  \r\n  // Define a modifier that checks if an item.state of a upc is Received\r\n  modifier forSaleByManufacturer(uint _upc) {\r\n      require(items[_upc].itemState == State.ForSaleByManufacturer);\r\n    _;\r\n  }\r\n  \r\n  // Define a modifier that checks if an item.state of a upc is Received\r\n  modifier soldByManufacturer(uint _upc) {\r\n      require(items[_upc].itemState == State.SoldByManufacturer);\r\n    _;\r\n  }\r\n  \r\n  // Define a modifier that checks if an item.state of a upc is Received\r\n  modifier shippedByManufacturer(uint _upc) {\r\n      require(items[_upc].itemState == State.ShippedByManufacturer);\r\n    _;\r\n  }\r\n  \r\n  // Define a modifier that checks if an item.state of a upc is Received\r\n  modifier forSaleByDistributor(uint _upc) {\r\n      require(items[_upc].itemState == State.ForSaleByDistributor);\r\n    _;\r\n  }\r\n  \r\n  // Define a modifier that checks if an item.state of a upc is Received\r\n  modifier soldByDistributor(uint _upc) {\r\n      require(items[_upc].itemState == State.SoldByDistributor);\r\n    _;\r\n  }\r\n  \r\n  // Define a modifier that checks if an item.state of a upc is Received\r\n  modifier shippedByDistributor(uint _upc) {\r\n      require(items[_upc].itemState == State.ShippedByDistributor);\r\n    _;\r\n  }\r\n  \r\n  // Define a modifier that checks if an item.state of a upc is Received\r\n  modifier forSaleByRetailer(uint _upc) {\r\n      require(items[_upc].itemState == State.ForSaleByRetailer);\r\n    _;\r\n  }\r\n  \r\n  // Define a modifier that checks if an item.state of a upc is Received\r\n  modifier purchased(uint _upc) {\r\n      require(items[_upc].itemState == State.Purchased);\r\n    _;\r\n  }\r\n  \r\n  // Define a modifier that checks if an item.state of a upc is Received\r\n  modifier shippedByRetailer(uint _upc) {\r\n      require(items[_upc].itemState == State.ShippedByRetailer);\r\n    _;\r\n  }\r\n  \r\n  // Define a modifier that checks if an item.state of a upc is Received\r\n  modifier receivedByConsumer(uint _upc) {\r\n      require(items[_upc].itemState == State.ReceivedByConsumer);\r\n    _;\r\n  }\r\n  \r\n\r\n  // In the constructor set 'owner' to the address that instantiated the contract\r\n  // and set 'sku' to 1\r\n  // and set 'upc' to 1\r\n  constructor() public payable {\r\n    sku = 1;\r\n    upc = 1;\r\n  }\r\n\r\n  // Define a function 'kill' if required\r\n  function kill() public {\r\n    if (msg.sender == owner()) {\r\n      selfdestruct(msg.sender);\r\n    }\r\n  }\r\n  \r\n\r\n  // Define a function 'harvestItem' that allows a farmer to mark an item 'Harvested'\r\n  function harvestItem(uint _upc, address _originHarvesterID, string memory _originHarvesterName, string memory _originHarvesterInformation, string memory _originHarvesterLatitude, string  memory _originHarvesterLongitude, string memory _productNotes) public \r\n  \r\n  verifyCaller(_originHarvesterID) //VerifyCaller \r\n  onlyHarvester() // onlyHarvester()\r\n  {\r\n    // Require that the UPC does not already exist\r\n    require(_upc != 0 && items[_upc].upc == 0, \"This UPC already exists.\");\r\n    // Add the new item as part of Harvest\r\n    Item memory newItem;\r\n    newItem.sku = sku;\r\n    newItem.upc = _upc;\r\n    newItem.ownerID = msg.sender;\r\n    newItem.originHarvesterID = msg.sender;\r\n    newItem.originHarvesterName = _originHarvesterName;\r\n    newItem.originHarvesterInformation = _originHarvesterInformation;\r\n    newItem.originHarvesterLatitude = _originHarvesterLatitude;\r\n    newItem.originHarvesterLongitude = _originHarvesterLongitude;\r\n    newItem.productNotes = _productNotes;\r\n    newItem.productID = _upc + 1000000000000000;\r\n    newItem.itemState = State.Harvested;\r\n    newItem.itemState2 = MaterialState.Lumber;\r\n    \r\n    // Add item to mapping using UFC\r\n    items[_upc] = newItem;\r\n    \r\n    // Increment sku\r\n    sku = sku + 1;\r\n    \r\n    // Emit the appropriate event\r\n    emit Harvested(_upc);\r\n    \r\n  }\r\n\r\n  // Define a function 'processtItem' that allows a farmer to mark an item 'Processed'\r\n  function processItem(uint _upc) public \r\n  // Call modifier to check if upc has passed previous supply chain stage\r\n  harvested(_upc)\r\n  // Call modifier to verify caller of this function\r\n  verifyCaller(items[_upc].originHarvesterID)\r\n  // Only harvester can process \r\n  onlyHarvester()\r\n  {\r\n    // Update the appropriate fields\r\n    items[_upc].itemState = State.Processed;\r\n\r\n    // Emit the appropriate event\r\n    emit Processed(_upc);\r\n  }\r\n\r\n  // Define a function 'packItem' that allows a farmer to mark an item 'Packed'\r\n  function packageItem(uint _upc) public \r\n  // Call modifier to check if upc has passed previous supply chain stage\r\n  processed(_upc)\r\n  // Only harvester\r\n  onlyHarvester()\r\n  // Call modifier to verify caller of this function\r\n  verifyCaller(items[_upc].originHarvesterID)\r\n  {\r\n    // Update the appropriate fields\r\n    items[_upc].itemState = State.Packaged;\r\n\r\n    // Emit the appropriate event\r\n    emit Packaged(_upc);\r\n  }\r\n\r\n  // Define a function 'sellItem' that allows a farmer to mark an item 'ForSale'\r\n  function sellItem(uint _upc, uint _price) public \r\n  // Call modifier to check if upc has passed previous supply chain stage\r\n  packaged(_upc)\r\n  // Only harvester\r\n  onlyHarvester()\r\n  // Call modifier to verify caller of this function\r\n  verifyCaller(items[_upc].originHarvesterID)\r\n  {\r\n    // Update the appropriate fields\r\n    items[_upc].productPrice = _price;\r\n    items[_upc].itemState = State.ForSale;\r\n\r\n    // Emit the appropriate event\r\n    emit ForSale(_upc);\r\n  }\r\n\r\n  // Define a function 'buyItem' that allows the disributor to mark an item 'Sold'\r\n  // Use the above defined modifiers to check if the item is available for sale, if the buyer has paid enough, \r\n  // and any excess ether sent is refunded back to the buyer\r\n  function buyItem(uint _upc) public payable \r\n    // Call modifier to check if upc has passed previous supply chain stage\r\n    forSale(_upc)\r\n    // Only manufacturer\r\n    onlyManufacturer()\r\n    // Call modifer to check if buyer has paid enough\r\n    paidEnough(items[_upc].productPrice)\r\n    // Call modifer to send any excess ether back to buyer\r\n    checkValue(_upc)\r\n    {\r\n    \r\n    // Update the appropriate fields - ownerID, distributorID, itemState\r\n    items[_upc].ownerID = msg.sender;\r\n    items[_upc].manufacturerID = msg.sender;\r\n    items[_upc].itemState = State.Sold;\r\n    // Transfer money to farmer\r\n    items[_upc].originHarvesterID.transfer(items[_upc].productPrice);\r\n    // emit the appropriate event\r\n    emit Sold(_upc);\r\n  }\r\n\r\n  // Define a function 'shipItem' that allows the distributor to mark an item 'Shipped'\r\n  // Use the above modifers to check if the item is sold\r\n  function shipItem(uint _upc) public \r\n    // Call modifier to check if upc has passed previous supply chain stage\r\n    sold(_upc)\r\n    // Only harvester\r\n    onlyHarvester()\r\n    // Call modifier to verify caller of this function\r\n    verifyCaller(items[_upc].originHarvesterID)\r\n    {\r\n    // Update the appropriate fields\r\n    items[_upc].itemState = State.Shipped;\r\n    \r\n    // Emit the appropriate event\r\n    emit Shipped(_upc);\r\n  }\r\n\r\n  // Define a function 'receiveItem' that allows the manufacturer to mark an item 'Received'\r\n  // Use the above modifiers to check if the item is shipped\r\n  function receiveItem(uint _upc) public \r\n    // Call modifier to check if upc has passed previous supply chain stage\r\n    shipped(_upc)\r\n    // Only manufacturer \r\n    onlyManufacturer()\r\n    // Access Control List enforced by calling Smart Contract / DApp\r\n    verifyCaller(items[_upc].manufacturerID)\r\n    {\r\n    // Update the appropriate fields - ownerID, retailerID, itemState\r\n    items[_upc].itemState = State.Received;\r\n    \r\n    // Emit the appropriate event\r\n    emit Received(_upc); \r\n  }\r\n  \r\n  // Manufacture the item y mananufacturer\r\n  function manufactureProduct(uint _upc) public\r\n  // Call modifier to check if upc has passed previous supply chain stage\r\n  received(_upc)\r\n  // Only manufacturer \r\n    onlyManufacturer()\r\n  // Verify manufacturer\r\n  verifyCaller(items[_upc].ownerID)\r\n  {\r\n      // Change item states accordingly\r\n      items[_upc].itemState = State.Manufactured;\r\n      items[_upc].itemState2 = MaterialState.Product;\r\n      \r\n      // Emit event\r\n      emit Manufactured(_upc);\r\n  }\r\n  \r\n  // Define a function 'packItem' that allows a farmer to mark an item 'Packed'\r\n  function packageProduct(uint _upc) public \r\n  // Call modifier to check if upc has passed previous supply chain stage\r\n  manufactured(_upc)\r\n  // Only manufacturer \r\n    onlyManufacturer()\r\n  // Call modifier to verify caller of this function\r\n  verifyCaller(items[_upc].ownerID)\r\n  {\r\n    // Update the appropriate fields\r\n    items[_upc].itemState = State.PackagedByManufacturer;\r\n\r\n    // Emit the appropriate event\r\n    emit PackagedByManufacturer(_upc);\r\n  }\r\n  \r\n \r\n  // Define a function 'sellItem' that allows a farmer to mark an item 'ForSale'\r\n  function sellProductByManfacturer(uint _upc, uint _price) public \r\n  // Call modifier to check if upc has passed previous supply chain stage\r\n  packagedByManufacturer(_upc)\r\n  // Only manufacturer \r\n    onlyManufacturer()\r\n  // Call modifier to verify caller of this function\r\n  verifyCaller(items[_upc].ownerID)\r\n  {\r\n    // Update the appropriate fields\r\n    items[_upc].productPrice = _price;\r\n    items[_upc].itemState = State.ForSaleByManufacturer;\r\n\r\n    // Emit the appropriate event\r\n    emit ForSaleByManufacturer(_upc);\r\n  }\r\n\r\n  // Define a function 'buyItem' that allows the disributor to mark an item 'Sold'\r\n  // Use the above defined modifiers to check if the item is available for sale, if the buyer has paid enough, \r\n  // and any excess ether sent is refunded back to the buyer\r\n  function buyProductByDistributor(uint _upc) public payable \r\n    // Call modifier to check if upc has passed previous supply chain stage\r\n    forSaleByManufacturer(_upc)\r\n    // Only distributor\r\n    onlyDistributor()\r\n    // Call modifer to check if buyer has paid enough\r\n    paidEnough(items[_upc].productPrice)\r\n    // Call modifer to send any excess ether back to buyer\r\n    checkValue(_upc)\r\n    {\r\n    \r\n    // Update the appropriate fields - ownerID, distributorID, itemState\r\n    items[_upc].ownerID = msg.sender;\r\n    items[_upc].distributorID = msg.sender;\r\n    items[_upc].itemState = State.SoldByManufacturer;\r\n    // Transfer money to farmer\r\n    items[_upc].manufacturerID.transfer(items[_upc].productPrice);\r\n    // emit the appropriate event\r\n    emit SoldByManufacturer(_upc);\r\n  }\r\n\r\n  // Define a function 'shipItem' that allows the distributor to mark an item 'Shipped'\r\n  // Use the above modifers to check if the item is sold\r\n  function shipProductByManufacturer(uint _upc) public \r\n    // Call modifier to check if upc has passed previous supply chain stage\r\n    soldByManufacturer(_upc)\r\n    // Only manufacturer \r\n    onlyManufacturer()\r\n    // Call modifier to verify caller of this function\r\n    verifyCaller(items[_upc].manufacturerID)\r\n    {\r\n    // Update the appropriate fields\r\n    items[_upc].itemState = State.ShippedByManufacturer;\r\n    \r\n    // Emit the appropriate event\r\n    emit ShippedByManufacturer(_upc);\r\n  }\r\n  \r\n  \r\n  // Define a function 'sellItem' that allows a farmer to mark an item 'ForSale'\r\n  function sellProductByDistributor(uint _upc, uint _price) public \r\n  // Call modifier to check if upc has passed previous supply chain stage\r\n  shippedByManufacturer(_upc)\r\n  // Only distributor\r\n    onlyDistributor()\r\n  // Call modifier to verify caller of this function\r\n  verifyCaller(items[_upc].ownerID)\r\n  {\r\n    // Update the appropriate fields\r\n    items[_upc].productPrice = _price;\r\n    items[_upc].itemState = State.ForSaleByDistributor;\r\n\r\n    // Emit the appropriate event\r\n    emit ForSaleByDistributor(_upc);\r\n  }\r\n\r\n  // Define a function 'buyItem' that allows the disributor to mark an item 'Sold'\r\n  // Use the above defined modifiers to check if the item is available for sale, if the buyer has paid enough, \r\n  // and any excess ether sent is refunded back to the buyer\r\n  function buyProductByRetailer(uint _upc) public payable \r\n    // Call modifier to check if upc has passed previous supply chain stage\r\n    forSaleByDistributor(_upc)\r\n    // Only Retailer\r\n    onlyRetailer()\r\n    // Call modifer to check if buyer has paid enough\r\n    paidEnough(items[_upc].productPrice)\r\n    // Call modifer to send any excess ether back to buyer\r\n    checkValue(_upc)\r\n    {\r\n    \r\n    // Update the appropriate fields - ownerID, distributorID, itemState\r\n    items[_upc].ownerID = msg.sender;\r\n    items[_upc].retailerID = msg.sender;\r\n    items[_upc].itemState = State.SoldByDistributor;\r\n    // Transfer money to farmer\r\n    items[_upc].distributorID.transfer(items[_upc].productPrice);\r\n    // emit the appropriate event\r\n    emit SoldByDistributor(_upc);\r\n  }\r\n\r\n  // Define a function 'shipItem' that allows the distributor to mark an item 'Shipped'\r\n  // Use the above modifers to check if the item is sold\r\n  function shipProductByDistributor(uint _upc) public \r\n    // Call modifier to check if upc has passed previous supply chain stage\r\n    soldByDistributor(_upc)\r\n    // Only distributor\r\n    onlyDistributor()\r\n    // Call modifier to verify caller of this function\r\n    verifyCaller(items[_upc].distributorID)\r\n    {\r\n    // Update the appropriate fields\r\n    items[_upc].itemState = State.ShippedByDistributor;\r\n    \r\n    // Emit the appropriate event\r\n    emit ShippedByDistributor(_upc);\r\n  }\r\n  \r\n  // Define a function 'sellItem' that allows a farmer to mark an item 'ForSale'\r\n  function sellProductByRetailer(uint _upc, uint _price) public \r\n  // Call modifier to check if upc has passed previous supply chain stage\r\n  shippedByDistributor(_upc)\r\n  // Only Retailer\r\n    onlyRetailer()\r\n  // Call modifier to verify caller of this function\r\n  verifyCaller(items[_upc].ownerID)\r\n  {\r\n    // Update the appropriate fields\r\n    items[_upc].productPrice = _price;\r\n    items[_upc].itemState = State.ForSaleByRetailer;\r\n\r\n    // Emit the appropriate event\r\n    emit ForSaleByRetailer(_upc);\r\n  }\r\n\r\n  // Define a function 'purchaseItem' that allows the consumer to mark an item 'Purchased'\r\n  // Use the above modifiers to check if the item is received\r\n  function purchase(uint _upc) public payable\r\n    // Call modifier to check if upc has passed previous supply chain stage\r\n    forSaleByRetailer(_upc)\r\n    // Only consumer \r\n    onlyConsumer()\r\n    // Access Control List enforced by calling Smart Contract / DApp\r\n    // Call modifer to check if buyer has paid enough\r\n    paidEnough(items[_upc].productPrice)\r\n    // Call modifer to send any excess ether back to buyer\r\n    checkValue(_upc)\r\n    {\r\n   // Update the appropriate fields - ownerID, distributorID, itemState\r\n    items[_upc].ownerID = msg.sender;\r\n    items[_upc].consumerID = msg.sender;\r\n    items[_upc].itemState = State.Purchased;\r\n    // Transfer money to farmer\r\n    items[_upc].retailerID.transfer(items[_upc].productPrice);\r\n    // emit the appropriate event\r\n    emit Purchased(_upc);\r\n    \r\n  }\r\n  \r\n  // Define a function 'shipItem' that allows the distributor to mark an item 'Shipped'\r\n  // Use the above modifers to check if the item is sold\r\n  function shipProductByRetailer(uint _upc) public \r\n    // Call modifier to check if upc has passed previous supply chain stage\r\n    purchased(_upc)\r\n    // Only Retailer\r\n    onlyRetailer()\r\n    // Call modifier to verify caller of this function\r\n    verifyCaller(items[_upc].retailerID)\r\n    {\r\n    // Update the appropriate fields\r\n    items[_upc].itemState = State.ShippedByRetailer;\r\n    \r\n    // Emit the appropriate event\r\n    emit ShippedByRetailer(_upc);\r\n  }\r\n  \r\n  // Define a function 'receiveItem' that allows the manufacturer to mark an item 'Received'\r\n  // Use the above modifiers to check if the item is shipped\r\n  function receiveProduct(uint _upc) public \r\n    // Call modifier to check if upc has passed previous supply chain stage\r\n    shippedByRetailer(_upc)\r\n    // Only consumer \r\n    onlyConsumer()\r\n    // Access Control List enforced by calling Smart Contract / DApp\r\n    verifyCaller(items[_upc].ownerID)\r\n    {\r\n    // Update the appropriate fields - ownerID, retailerID, itemState\r\n    items[_upc].itemState = State.ReceivedByConsumer;\r\n    \r\n    // Emit the appropriate event\r\n    emit ReceivedByConsumer(_upc); \r\n  }\r\n  \r\n\r\n  // Define a function 'fetchItemBufferOne' that fetches the data\r\n  function fetchItemBufferOne(uint _upc) public view returns \r\n  (\r\n  uint    itemSKU,\r\n  uint    itemUPC,\r\n  address ownerID,\r\n  address originHarvesterID,\r\n  string memory originHarvesterName,\r\n  string memory originHarvesterInformation,\r\n  string memory originHarvesterLatitude,\r\n  string memory originHarvesterLongitude\r\n  ) \r\n  {\r\n  // Assign values to the 8 parameters\r\n  Item memory returnItem = items[_upc];\r\n    \r\n  return \r\n  (\r\n  returnItem.sku,\r\n  returnItem.upc,\r\n  returnItem.ownerID,\r\n  returnItem.originHarvesterID,\r\n  returnItem.originHarvesterName,\r\n  returnItem.originHarvesterInformation,\r\n  returnItem.originHarvesterLatitude,\r\n  returnItem.originHarvesterLongitude\r\n  );\r\n  }\r\n\r\n  // Define a function 'fetchItemBufferTwo' that fetches the data\r\n  function fetchItemBufferTwo(uint _upc) public view returns \r\n  (\r\n  uint    itemSKU,\r\n  uint    itemUPC,\r\n  uint    productID,\r\n  string memory productNotes,\r\n  string memory productNotesByManufacturer,\r\n  uint    productPrice,\r\n  State   itemState,\r\n  MaterialState    itemState2,\r\n  address payable distributorID,\r\n  address payable retailerID,\r\n  address payable consumerID\r\n  ) \r\n  {\r\n    // Assign values to the 9 parameters\r\n  Item memory returnItem = items[_upc];\r\n    \r\n  return \r\n  (\r\n  returnItem.sku,\r\n  returnItem.upc,\r\n  returnItem.productID,\r\n  returnItem.productNotes,\r\n  returnItem.productNotesByManufacturer,\r\n  returnItem.productPrice,\r\n  returnItem.itemState,\r\n  returnItem.itemState2,\r\n  returnItem.distributorID,\r\n  returnItem.retailerID,\r\n  returnItem.consumerID\r\n  );\r\n  }\r\n}",
  "sourcePath": "C:/Users/Valentijn.vd.Hout/Desktop/Udacity_SupplyChain/blockchain/contracts/Base/SupplyChain.sol",
  "compiler": {
    "name": "solc",
    "version": "0.5.1+commit.c8a2cb62.Emscripten.clang"
  },
  "schemaVersion": "3.0.0",
  "updatedAt": "2019-02-27T11:09:21.074Z",
  "devdoc": {
    "methods": {
      "isOwner()": {
        "return": "true if `msg.sender` is the owner of the contract.\r"
      },
      "owner()": {
        "return": "the address of the owner.\r"
      },
      "renounceOwnership()": {
        "details": "Allows the current owner to relinquish control of the contract.\r"
      },
      "transferOwnership(address)": {
        "details": "Allows the current owner to transfer control of the contract to a newOwner.\r",
        "params": {
          "newOwner": "The address to transfer ownership to.\r"
        }
      }
    }
  },
  "userdoc": {
    "methods": {
      "renounceOwnership()": {
        "notice": "Renouncing to ownership will leave the contract without an owner.\r It will not be possible to call the functions with the `onlyOwner`\r modifier anymore.\r"
      }
    }
  }
}