{
  "contractName": "SupplyChain",
  "abi": [
    {
      "constant": false,
      "inputs": [
        {
          "name": "account",
          "type": "address"
        }
      ],
      "name": "addConsumer",
      "outputs": [],
      "payable": false,
      "stateMutability": "nonpayable",
      "type": "function"
    },
    {
      "constant": true,
      "inputs": [
        {
          "name": "account",
          "type": "address"
        }
      ],
      "name": "isManufacturer",
      "outputs": [
        {
          "name": "",
          "type": "bool"
        }
      ],
      "payable": false,
      "stateMutability": "view",
      "type": "function"
    },
    {
      "constant": true,
      "inputs": [
        {
          "name": "account",
          "type": "address"
        }
      ],
      "name": "isRetailer",
      "outputs": [
        {
          "name": "",
          "type": "bool"
        }
      ],
      "payable": false,
      "stateMutability": "view",
      "type": "function"
    },
    {
      "constant": false,
      "inputs": [
        {
          "name": "account",
          "type": "address"
        }
      ],
      "name": "addManufacturer",
      "outputs": [],
      "payable": false,
      "stateMutability": "nonpayable",
      "type": "function"
    },
    {
      "constant": false,
      "inputs": [],
      "name": "renounceConsumer",
      "outputs": [],
      "payable": false,
      "stateMutability": "nonpayable",
      "type": "function"
    },
    {
      "constant": false,
      "inputs": [],
      "name": "renounceDistributor",
      "outputs": [],
      "payable": false,
      "stateMutability": "nonpayable",
      "type": "function"
    },
    {
      "constant": false,
      "inputs": [],
      "name": "renounceOwnership",
      "outputs": [],
      "payable": false,
      "stateMutability": "nonpayable",
      "type": "function"
    },
    {
      "constant": false,
      "inputs": [
        {
          "name": "account",
          "type": "address"
        }
      ],
      "name": "addDistributor",
      "outputs": [],
      "payable": false,
      "stateMutability": "nonpayable",
      "type": "function"
    },
    {
      "constant": true,
      "inputs": [
        {
          "name": "account",
          "type": "address"
        }
      ],
      "name": "isConsumer",
      "outputs": [
        {
          "name": "",
          "type": "bool"
        }
      ],
      "payable": false,
      "stateMutability": "view",
      "type": "function"
    },
    {
      "constant": true,
      "inputs": [],
      "name": "owner",
      "outputs": [
        {
          "name": "",
          "type": "address"
        }
      ],
      "payable": false,
      "stateMutability": "view",
      "type": "function"
    },
    {
      "constant": false,
      "inputs": [
        {
          "name": "account",
          "type": "address"
        }
      ],
      "name": "addRetailer",
      "outputs": [],
      "payable": false,
      "stateMutability": "nonpayable",
      "type": "function"
    },
    {
      "constant": true,
      "inputs": [
        {
          "name": "account",
          "type": "address"
        }
      ],
      "name": "isDistributor",
      "outputs": [
        {
          "name": "",
          "type": "bool"
        }
      ],
      "payable": false,
      "stateMutability": "view",
      "type": "function"
    },
    {
      "constant": true,
      "inputs": [],
      "name": "isOwner",
      "outputs": [
        {
          "name": "",
          "type": "bool"
        }
      ],
      "payable": false,
      "stateMutability": "view",
      "type": "function"
    },
    {
      "constant": false,
      "inputs": [
        {
          "name": "account",
          "type": "address"
        }
      ],
      "name": "addHarvester",
      "outputs": [],
      "payable": false,
      "stateMutability": "nonpayable",
      "type": "function"
    },
    {
      "constant": true,
      "inputs": [
        {
          "name": "account",
          "type": "address"
        }
      ],
      "name": "isHarvester",
      "outputs": [
        {
          "name": "",
          "type": "bool"
        }
      ],
      "payable": false,
      "stateMutability": "view",
      "type": "function"
    },
    {
      "constant": false,
      "inputs": [],
      "name": "renounceHarvester",
      "outputs": [],
      "payable": false,
      "stateMutability": "nonpayable",
      "type": "function"
    },
    {
      "constant": false,
      "inputs": [],
      "name": "renounceRetailer",
      "outputs": [],
      "payable": false,
      "stateMutability": "nonpayable",
      "type": "function"
    },
    {
      "constant": false,
      "inputs": [],
      "name": "renounceManufacturer",
      "outputs": [],
      "payable": false,
      "stateMutability": "nonpayable",
      "type": "function"
    },
    {
      "constant": false,
      "inputs": [
        {
          "name": "newOwner",
          "type": "address"
        }
      ],
      "name": "transferOwnership",
      "outputs": [],
      "payable": false,
      "stateMutability": "nonpayable",
      "type": "function"
    },
    {
      "inputs": [],
      "payable": true,
      "stateMutability": "payable",
      "type": "constructor"
    },
    {
      "anonymous": false,
      "inputs": [
        {
          "indexed": false,
          "name": "upc",
          "type": "uint256"
        }
      ],
      "name": "Harvested",
      "type": "event"
    },
    {
      "anonymous": false,
      "inputs": [
        {
          "indexed": false,
          "name": "upc",
          "type": "uint256"
        }
      ],
      "name": "Processed",
      "type": "event"
    },
    {
      "anonymous": false,
      "inputs": [
        {
          "indexed": false,
          "name": "upc",
          "type": "uint256"
        }
      ],
      "name": "Packaged",
      "type": "event"
    },
    {
      "anonymous": false,
      "inputs": [
        {
          "indexed": false,
          "name": "upc",
          "type": "uint256"
        }
      ],
      "name": "ForSale",
      "type": "event"
    },
    {
      "anonymous": false,
      "inputs": [
        {
          "indexed": false,
          "name": "upc",
          "type": "uint256"
        }
      ],
      "name": "Sold",
      "type": "event"
    },
    {
      "anonymous": false,
      "inputs": [
        {
          "indexed": false,
          "name": "upc",
          "type": "uint256"
        }
      ],
      "name": "Shipped",
      "type": "event"
    },
    {
      "anonymous": false,
      "inputs": [
        {
          "indexed": false,
          "name": "upc",
          "type": "uint256"
        }
      ],
      "name": "Received",
      "type": "event"
    },
    {
      "anonymous": false,
      "inputs": [
        {
          "indexed": false,
          "name": "upc",
          "type": "uint256"
        }
      ],
      "name": "Manufactured",
      "type": "event"
    },
    {
      "anonymous": false,
      "inputs": [
        {
          "indexed": false,
          "name": "upc",
          "type": "uint256"
        }
      ],
      "name": "PackagedByManufacturer",
      "type": "event"
    },
    {
      "anonymous": false,
      "inputs": [
        {
          "indexed": false,
          "name": "upc",
          "type": "uint256"
        }
      ],
      "name": "ForSaleByManufacturer",
      "type": "event"
    },
    {
      "anonymous": false,
      "inputs": [
        {
          "indexed": false,
          "name": "upc",
          "type": "uint256"
        }
      ],
      "name": "SoldByManufacturer",
      "type": "event"
    },
    {
      "anonymous": false,
      "inputs": [
        {
          "indexed": false,
          "name": "upc",
          "type": "uint256"
        }
      ],
      "name": "ShippedByManufacturer",
      "type": "event"
    },
    {
      "anonymous": false,
      "inputs": [
        {
          "indexed": false,
          "name": "upc",
          "type": "uint256"
        }
      ],
      "name": "ForSaleByDistributor",
      "type": "event"
    },
    {
      "anonymous": false,
      "inputs": [
        {
          "indexed": false,
          "name": "upc",
          "type": "uint256"
        }
      ],
      "name": "SoldByDistributor",
      "type": "event"
    },
    {
      "anonymous": false,
      "inputs": [
        {
          "indexed": false,
          "name": "upc",
          "type": "uint256"
        }
      ],
      "name": "ShippedByDistributor",
      "type": "event"
    },
    {
      "anonymous": false,
      "inputs": [
        {
          "indexed": false,
          "name": "upc",
          "type": "uint256"
        }
      ],
      "name": "ForSaleByRetailer",
      "type": "event"
    },
    {
      "anonymous": false,
      "inputs": [
        {
          "indexed": false,
          "name": "upc",
          "type": "uint256"
        }
      ],
      "name": "Purchased",
      "type": "event"
    },
    {
      "anonymous": false,
      "inputs": [
        {
          "indexed": false,
          "name": "upc",
          "type": "uint256"
        }
      ],
      "name": "ShippedByRetailer",
      "type": "event"
    },
    {
      "anonymous": false,
      "inputs": [
        {
          "indexed": false,
          "name": "upc",
          "type": "uint256"
        }
      ],
      "name": "ReceivedByConsumer",
      "type": "event"
    },
    {
      "anonymous": false,
      "inputs": [
        {
          "indexed": true,
          "name": "previousOwner",
          "type": "address"
        },
        {
          "indexed": true,
          "name": "newOwner",
          "type": "address"
        }
      ],
      "name": "OwnershipTransferred",
      "type": "event"
    },
    {
      "anonymous": false,
      "inputs": [
        {
          "indexed": true,
          "name": "account",
          "type": "address"
        }
      ],
      "name": "ConsumerAdded",
      "type": "event"
    },
    {
      "anonymous": false,
      "inputs": [
        {
          "indexed": true,
          "name": "account",
          "type": "address"
        }
      ],
      "name": "ConsumerRemoved",
      "type": "event"
    },
    {
      "anonymous": false,
      "inputs": [
        {
          "indexed": true,
          "name": "account",
          "type": "address"
        }
      ],
      "name": "RetailerAdded",
      "type": "event"
    },
    {
      "anonymous": false,
      "inputs": [
        {
          "indexed": true,
          "name": "account",
          "type": "address"
        }
      ],
      "name": "RetailerRemoved",
      "type": "event"
    },
    {
      "anonymous": false,
      "inputs": [
        {
          "indexed": true,
          "name": "account",
          "type": "address"
        }
      ],
      "name": "DistributorAdded",
      "type": "event"
    },
    {
      "anonymous": false,
      "inputs": [
        {
          "indexed": true,
          "name": "account",
          "type": "address"
        }
      ],
      "name": "DistributorRemoved",
      "type": "event"
    },
    {
      "anonymous": false,
      "inputs": [
        {
          "indexed": true,
          "name": "account",
          "type": "address"
        }
      ],
      "name": "ManufacturerAdded",
      "type": "event"
    },
    {
      "anonymous": false,
      "inputs": [
        {
          "indexed": true,
          "name": "account",
          "type": "address"
        }
      ],
      "name": "ManufacturerRemoved",
      "type": "event"
    },
    {
      "anonymous": false,
      "inputs": [
        {
          "indexed": true,
          "name": "account",
          "type": "address"
        }
      ],
      "name": "HarvesterAdded",
      "type": "event"
    },
    {
      "anonymous": false,
      "inputs": [
        {
          "indexed": true,
          "name": "account",
          "type": "address"
        }
      ],
      "name": "HarvesterRemoved",
      "type": "event"
    },
    {
      "constant": false,
      "inputs": [],
      "name": "kill",
      "outputs": [],
      "payable": false,
      "stateMutability": "nonpayable",
      "type": "function"
    },
    {
      "constant": false,
      "inputs": [
        {
          "name": "_upc",
          "type": "uint256"
        },
        {
          "name": "_originHarvesterID",
          "type": "address"
        },
        {
          "name": "_originHarvesterName",
          "type": "string"
        },
        {
          "name": "_originHarvesterInformation",
          "type": "string"
        },
        {
          "name": "_originHarvesterLatitude",
          "type": "string"
        },
        {
          "name": "_originHarvesterLongitude",
          "type": "string"
        },
        {
          "name": "_productNotes",
          "type": "string"
        }
      ],
      "name": "harvestLumber",
      "outputs": [],
      "payable": false,
      "stateMutability": "nonpayable",
      "type": "function"
    },
    {
      "constant": false,
      "inputs": [
        {
          "name": "_upc",
          "type": "uint256"
        }
      ],
      "name": "processLumber",
      "outputs": [],
      "payable": false,
      "stateMutability": "nonpayable",
      "type": "function"
    },
    {
      "constant": false,
      "inputs": [
        {
          "name": "_upc",
          "type": "uint256"
        }
      ],
      "name": "packageLumber",
      "outputs": [],
      "payable": false,
      "stateMutability": "nonpayable",
      "type": "function"
    },
    {
      "constant": false,
      "inputs": [
        {
          "name": "_upc",
          "type": "uint256"
        },
        {
          "name": "_price",
          "type": "uint256"
        }
      ],
      "name": "sellLumber",
      "outputs": [],
      "payable": false,
      "stateMutability": "nonpayable",
      "type": "function"
    },
    {
      "constant": false,
      "inputs": [
        {
          "name": "_upc",
          "type": "uint256"
        }
      ],
      "name": "buyLumber",
      "outputs": [],
      "payable": true,
      "stateMutability": "payable",
      "type": "function"
    },
    {
      "constant": false,
      "inputs": [
        {
          "name": "_upc",
          "type": "uint256"
        }
      ],
      "name": "shipLumber",
      "outputs": [],
      "payable": false,
      "stateMutability": "nonpayable",
      "type": "function"
    },
    {
      "constant": false,
      "inputs": [
        {
          "name": "_upc",
          "type": "uint256"
        }
      ],
      "name": "receiveLumber",
      "outputs": [],
      "payable": false,
      "stateMutability": "nonpayable",
      "type": "function"
    },
    {
      "constant": false,
      "inputs": [
        {
          "name": "_upc",
          "type": "uint256"
        },
        {
          "name": "_manufacturerNotes",
          "type": "string"
        }
      ],
      "name": "manufactureProduct",
      "outputs": [],
      "payable": false,
      "stateMutability": "nonpayable",
      "type": "function"
    },
    {
      "constant": false,
      "inputs": [
        {
          "name": "_upc",
          "type": "uint256"
        }
      ],
      "name": "packageProduct",
      "outputs": [],
      "payable": false,
      "stateMutability": "nonpayable",
      "type": "function"
    },
    {
      "constant": false,
      "inputs": [
        {
          "name": "_upc",
          "type": "uint256"
        },
        {
          "name": "_price",
          "type": "uint256"
        }
      ],
      "name": "sellProductByManufacturer",
      "outputs": [],
      "payable": false,
      "stateMutability": "nonpayable",
      "type": "function"
    },
    {
      "constant": false,
      "inputs": [
        {
          "name": "_upc",
          "type": "uint256"
        }
      ],
      "name": "buyProductByDistributor",
      "outputs": [],
      "payable": true,
      "stateMutability": "payable",
      "type": "function"
    },
    {
      "constant": false,
      "inputs": [
        {
          "name": "_upc",
          "type": "uint256"
        }
      ],
      "name": "shipProductByManufacturer",
      "outputs": [],
      "payable": false,
      "stateMutability": "nonpayable",
      "type": "function"
    },
    {
      "constant": false,
      "inputs": [
        {
          "name": "_upc",
          "type": "uint256"
        },
        {
          "name": "_price",
          "type": "uint256"
        }
      ],
      "name": "sellProductByDistributor",
      "outputs": [],
      "payable": false,
      "stateMutability": "nonpayable",
      "type": "function"
    },
    {
      "constant": false,
      "inputs": [
        {
          "name": "_upc",
          "type": "uint256"
        }
      ],
      "name": "buyProductByRetailer",
      "outputs": [],
      "payable": true,
      "stateMutability": "payable",
      "type": "function"
    },
    {
      "constant": false,
      "inputs": [
        {
          "name": "_upc",
          "type": "uint256"
        }
      ],
      "name": "shipProductByDistributor",
      "outputs": [],
      "payable": false,
      "stateMutability": "nonpayable",
      "type": "function"
    },
    {
      "constant": false,
      "inputs": [
        {
          "name": "_upc",
          "type": "uint256"
        },
        {
          "name": "_price",
          "type": "uint256"
        }
      ],
      "name": "sellProductByRetailer",
      "outputs": [],
      "payable": false,
      "stateMutability": "nonpayable",
      "type": "function"
    },
    {
      "constant": false,
      "inputs": [
        {
          "name": "_upc",
          "type": "uint256"
        }
      ],
      "name": "purchase",
      "outputs": [],
      "payable": true,
      "stateMutability": "payable",
      "type": "function"
    },
    {
      "constant": false,
      "inputs": [
        {
          "name": "_upc",
          "type": "uint256"
        }
      ],
      "name": "shipProductByRetailer",
      "outputs": [],
      "payable": false,
      "stateMutability": "nonpayable",
      "type": "function"
    },
    {
      "constant": false,
      "inputs": [
        {
          "name": "_upc",
          "type": "uint256"
        }
      ],
      "name": "receiveProduct",
      "outputs": [],
      "payable": false,
      "stateMutability": "nonpayable",
      "type": "function"
    },
    {
      "constant": true,
      "inputs": [
        {
          "name": "_upc",
          "type": "uint256"
        }
      ],
      "name": "fetchItemBufferOne",
      "outputs": [
        {
          "name": "itemSKU",
          "type": "uint256"
        },
        {
          "name": "itemUPC",
          "type": "uint256"
        },
        {
          "name": "ownerID",
          "type": "address"
        },
        {
          "name": "originHarvesterID",
          "type": "address"
        },
        {
          "name": "originHarvesterName",
          "type": "string"
        },
        {
          "name": "originHarvesterInformation",
          "type": "string"
        },
        {
          "name": "originHarvesterLatitude",
          "type": "string"
        },
        {
          "name": "originHarvesterLongitude",
          "type": "string"
        }
      ],
      "payable": false,
      "stateMutability": "view",
      "type": "function"
    },
    {
      "constant": true,
      "inputs": [
        {
          "name": "_upc",
          "type": "uint256"
        }
      ],
      "name": "fetchItemBufferTwo",
      "outputs": [
        {
          "name": "itemSKU",
          "type": "uint256"
        },
        {
          "name": "itemUPC",
          "type": "uint256"
        },
        {
          "name": "productID",
          "type": "uint256"
        },
        {
          "name": "productNotes",
          "type": "string"
        },
        {
          "name": "productNotesByManufacturer",
          "type": "string"
        },
        {
          "name": "productPrice",
          "type": "uint256"
        },
        {
          "name": "itemState",
          "type": "uint8"
        },
        {
          "name": "itemState2",
          "type": "uint8"
        },
        {
          "name": "manufacturerID",
          "type": "address"
        },
        {
          "name": "distributorID",
          "type": "address"
        },
        {
          "name": "retailerID",
          "type": "address"
        },
        {
          "name": "consumerID",
          "type": "address"
        }
      ],
      "payable": false,
      "stateMutability": "view",
      "type": "function"
    }
  ],
  "bytecode": "0x60806040526200001e336200015a640100000000026401000000009004565b6200003833620001c4640100000000026401000000009004565b62000052336200022e640100000000026401000000009004565b6200006c3362000298640100000000026401000000009004565b620000863362000302640100000000026401000000009004565b33600560006101000a81548173ffffffffffffffffffffffffffffffffffffffff021916908373ffffffffffffffffffffffffffffffffffffffff160217905550600560009054906101000a900473ffffffffffffffffffffffffffffffffffffffff1673ffffffffffffffffffffffffffffffffffffffff16600073ffffffffffffffffffffffffffffffffffffffff167f8be0079c531659141344cd1fd0a4f28419497f9722a3daafe3b4186f6b6457e060405160405180910390a360016007819055506001600681905550620004c4565b6200017e8160006200036c6401000000000262004ce4179091906401000000009004565b8073ffffffffffffffffffffffffffffffffffffffff167f2a6b352b84affc85ec0ab54b71a09c17830148eb8a1c5aeabf5cd5e73ee7c24860405160405180910390a250565b620001e88160016200036c6401000000000262004ce4179091906401000000009004565b8073ffffffffffffffffffffffffffffffffffffffff167f561138658ca49a8540dc70dcfe64c9026c1c5b9344642242dd6562970f9c127860405160405180910390a250565b620002528160026200036c6401000000000262004ce4179091906401000000009004565b8073ffffffffffffffffffffffffffffffffffffffff167fddbf200aa634dc3fb81cfd68583dd1040d1c751d335e1d86b631bde3e977fea860405160405180910390a250565b620002bc8160036200036c6401000000000262004ce4179091906401000000009004565b8073ffffffffffffffffffffffffffffffffffffffff167f71ae26cad02663e3d92efd6ec56031a80d74a20c0ab4183faa8bf262261c9baa60405160405180910390a250565b620003268160046200036c6401000000000262004ce4179091906401000000009004565b8073ffffffffffffffffffffffffffffffffffffffff167f28b26e7a3d20aedbc5f8f2ebf7da671c0491723a2b78f47a097b0e46dee0714260405160405180910390a250565b600073ffffffffffffffffffffffffffffffffffffffff168173ffffffffffffffffffffffffffffffffffffffff1614151515620003a957600080fd5b620003c482826200042f640100000000026401000000009004565b151515620003d157600080fd5b60018260000160008373ffffffffffffffffffffffffffffffffffffffff1673ffffffffffffffffffffffffffffffffffffffff16815260200190815260200160002060006101000a81548160ff0219169083151502179055505050565b60008073ffffffffffffffffffffffffffffffffffffffff168273ffffffffffffffffffffffffffffffffffffffff16141515156200046d57600080fd5b8260000160008373ffffffffffffffffffffffffffffffffffffffff1673ffffffffffffffffffffffffffffffffffffffff16815260200190815260200160002060009054906101000a900460ff16905092915050565b6150ba80620004d46000396000f3fe6080604052600436106101f3576000357c010000000000000000000000000000000000000000000000000000000090048063112940f9146101f8578063149fd3a91461024957806317d4a4911461028457806319c57713146102ed57806323029b501461032857806329d78328146103635780633c87e1881461039e57806341c0e1b5146103e3578063528356ed146103fa5780635da09b881461043f5780635f8a5afa146104a857806361e6982d146104f9578063644241db1461051057806364c9300414610527578063651691891461056257806366225ff9146108b0578063715018a614610ae25780637250e22414610af957806372cf200914610b4a57806377c4591314610b78578063834ff73914610de45780638b52f0f714610e4d5780638da5cb5b14610e885780638ec4f50514610edf5780638f0c86fa14610f305780638f32d59b14610f995780638fab591714610fc8578063a21e813f14611019578063a71bbfd5146110eb578063afe522b414611154578063b59b4ca51461118f578063b79ff797146111ca578063bed4b50f146111e1578063cc7b439f1461120f578063db0e6a2f14611254578063de07f34e1461126b578063e7e8f56414611282578063efef39a1146112c7578063f160e0c3146112f5578063f196944114611323578063f2fde38b1461135e575b600080fd5b34801561020457600080fd5b506102476004803603602081101561021b57600080fd5b81019080803573ffffffffffffffffffffffffffffffffffffffff1690602001909291905050506113af565b005b34801561025557600080fd5b506102826004803603602081101561026c57600080fd5b81019080803590602001909291905050506113cf565b005b34801561029057600080fd5b506102d3600480360360208110156102a757600080fd5b81019080803573ffffffffffffffffffffffffffffffffffffffff169060200190929190505050611510565b604051808215151515815260200191505060405180910390f35b3480156102f957600080fd5b506103266004803603602081101561031057600080fd5b810190808035906020019092919050505061152d565b005b34801561033457600080fd5b506103616004803603602081101561034b57600080fd5b810190808035906020019092919050505061166f565b005b34801561036f57600080fd5b5061039c6004803603602081101561038657600080fd5b81019080803590602001909291905050506117b1565b005b3480156103aa57600080fd5b506103e1600480360360408110156103c157600080fd5b8101908080359060200190929190803590602001909291905050506118f3565b005b3480156103ef57600080fd5b506103f8611a51565b005b34801561040657600080fd5b5061043d6004803603604081101561041d57600080fd5b810190808035906020019092919080359060200190929190505050611aa7565b005b34801561044b57600080fd5b5061048e6004803603602081101561046257600080fd5b81019080803573ffffffffffffffffffffffffffffffffffffffff169060200190929190505050611c05565b604051808215151515815260200191505060405180910390f35b3480156104b457600080fd5b506104f7600480360360208110156104cb57600080fd5b81019080803573ffffffffffffffffffffffffffffffffffffffff169060200190929190505050611c22565b005b34801561050557600080fd5b5061050e611c42565b005b34801561051c57600080fd5b50610525611c4d565b005b34801561053357600080fd5b506105606004803603602081101561054a57600080fd5b8101908080359060200190929190505050611c58565b005b34801561056e57600080fd5b506108ae600480360360e081101561058557600080fd5b8101908080359060200190929190803573ffffffffffffffffffffffffffffffffffffffff169060200190929190803590602001906401000000008111156105cc57600080fd5b8201836020820111156105de57600080fd5b8035906020019184600183028401116401000000008311171561060057600080fd5b91908080601f016020809104026020016040519081016040528093929190818152602001838380828437600081840152601f19601f8201169050808301925050505050505091929192908035906020019064010000000081111561066357600080fd5b82018360208201111561067557600080fd5b8035906020019184600183028401116401000000008311171561069757600080fd5b91908080601f016020809104026020016040519081016040528093929190818152602001838380828437600081840152601f19601f820116905080830192505050505050509192919290803590602001906401000000008111156106fa57600080fd5b82018360208201111561070c57600080fd5b8035906020019184600183028401116401000000008311171561072e57600080fd5b91908080601f016020809104026020016040519081016040528093929190818152602001838380828437600081840152601f19601f8201169050808301925050505050505091929192908035906020019064010000000081111561079157600080fd5b8201836020820111156107a357600080fd5b803590602001918460018302840111640100000000831117156107c557600080fd5b91908080601f016020809104026020016040519081016040528093929190818152602001838380828437600081840152601f19601f8201169050808301925050505050505091929192908035906020019064010000000081111561082857600080fd5b82018360208201111561083a57600080fd5b8035906020019184600183028401116401000000008311171561085c57600080fd5b91908080601f016020809104026020016040519081016040528093929190818152602001838380828437600081840152601f19601f820116905080830192505050505050509192919290505050611d9a565b005b3480156108bc57600080fd5b506108e9600480360360208110156108d357600080fd5b81019080803590602001909291905050506122dd565b604051808d81526020018c81526020018b815260200180602001806020018a815260200189601281111561091957fe5b60ff16815260200188600181111561092d57fe5b60ff1681526020018773ffffffffffffffffffffffffffffffffffffffff1673ffffffffffffffffffffffffffffffffffffffff1681526020018673ffffffffffffffffffffffffffffffffffffffff1673ffffffffffffffffffffffffffffffffffffffff1681526020018573ffffffffffffffffffffffffffffffffffffffff1673ffffffffffffffffffffffffffffffffffffffff1681526020018473ffffffffffffffffffffffffffffffffffffffff1673ffffffffffffffffffffffffffffffffffffffff16815260200183810383528c818151815260200191508051906020019080838360005b83811015610a35578082015181840152602081019050610a1a565b50505050905090810190601f168015610a625780820380516001836020036101000a031916815260200191505b5083810382528b818151815260200191508051906020019080838360005b83811015610a9b578082015181840152602081019050610a80565b50505050905090810190601f168015610ac85780820380516001836020036101000a031916815260200191505b509e50505050505050505050505050505060405180910390f35b348015610aee57600080fd5b50610af76129e0565b005b348015610b0557600080fd5b50610b4860048036036020811015610b1c57600080fd5b81019080803573ffffffffffffffffffffffffffffffffffffffff169060200190929190505050612ab4565b005b610b7660048036036020811015610b6057600080fd5b8101908080359060200190929190505050612ad4565b005b348015610b8457600080fd5b50610bb160048036036020811015610b9b57600080fd5b8101908080359060200190929190505050612dab565b604051808981526020018881526020018773ffffffffffffffffffffffffffffffffffffffff1673ffffffffffffffffffffffffffffffffffffffff1681526020018673ffffffffffffffffffffffffffffffffffffffff1673ffffffffffffffffffffffffffffffffffffffff16815260200180602001806020018060200180602001858103855289818151815260200191508051906020019080838360005b83811015610c6d578082015181840152602081019050610c52565b50505050905090810190601f168015610c9a5780820380516001836020036101000a031916815260200191505b50858103845288818151815260200191508051906020019080838360005b83811015610cd3578082015181840152602081019050610cb8565b50505050905090810190601f168015610d005780820380516001836020036101000a031916815260200191505b50858103835287818151815260200191508051906020019080838360005b83811015610d39578082015181840152602081019050610d1e565b50505050905090810190601f168015610d665780820380516001836020036101000a031916815260200191505b50858103825286818151815260200191508051906020019080838360005b83811015610d9f578082015181840152602081019050610d84565b50505050905090810190601f168015610dcc5780820380516001836020036101000a031916815260200191505b509c5050505050505050505050505060405180910390f35b348015610df057600080fd5b50610e3360048036036020811015610e0757600080fd5b81019080803573ffffffffffffffffffffffffffffffffffffffff169060200190929190505050613489565b604051808215151515815260200191505060405180910390f35b348015610e5957600080fd5b50610e8660048036036020811015610e7057600080fd5b81019080803590602001909291905050506134a6565b005b348015610e9457600080fd5b50610e9d6135e8565b604051808273ffffffffffffffffffffffffffffffffffffffff1673ffffffffffffffffffffffffffffffffffffffff16815260200191505060405180910390f35b348015610eeb57600080fd5b50610f2e60048036036020811015610f0257600080fd5b81019080803573ffffffffffffffffffffffffffffffffffffffff169060200190929190505050613612565b005b348015610f3c57600080fd5b50610f7f60048036036020811015610f5357600080fd5b81019080803573ffffffffffffffffffffffffffffffffffffffff169060200190929190505050613632565b604051808215151515815260200191505060405180910390f35b348015610fa557600080fd5b50610fae61364f565b604051808215151515815260200191505060405180910390f35b348015610fd457600080fd5b5061101760048036036020811015610feb57600080fd5b81019080803573ffffffffffffffffffffffffffffffffffffffff1690602001909291905050506136a7565b005b34801561102557600080fd5b506110e96004803603604081101561103c57600080fd5b81019080803590602001909291908035906020019064010000000081111561106357600080fd5b82018360208201111561107557600080fd5b8035906020019184600183028401116401000000008311171561109757600080fd5b91908080601f016020809104026020016040519081016040528093929190818152602001838380828437600081840152601f19601f8201169050808301925050505050505091929192905050506136c7565b005b3480156110f757600080fd5b5061113a6004803603602081101561110e57600080fd5b81019080803573ffffffffffffffffffffffffffffffffffffffff16906020019092919050505061386d565b604051808215151515815260200191505060405180910390f35b34801561116057600080fd5b5061118d6004803603602081101561117757600080fd5b810190808035906020019092919050505061388a565b005b34801561119b57600080fd5b506111c8600480360360208110156111b257600080fd5b81019080803590602001909291905050506139cc565b005b3480156111d657600080fd5b506111df613b0e565b005b61120d600480360360208110156111f757600080fd5b8101908080359060200190929190505050613b19565b005b34801561121b57600080fd5b506112526004803603604081101561123257600080fd5b810190808035906020019092919080359060200190929190505050613df0565b005b34801561126057600080fd5b50611269613f4e565b005b34801561127757600080fd5b50611280613f59565b005b34801561128e57600080fd5b506112c5600480360360408110156112a557600080fd5b810190808035906020019092919080359060200190929190505050613f64565b005b6112f3600480360360208110156112dd57600080fd5b81019080803590602001909291905050506140c2565b005b6113216004803603602081101561130b57600080fd5b8101908080359060200190929190505050614399565b005b34801561132f57600080fd5b5061135c6004803603602081101561134657600080fd5b8101908080359060200190929190505050614670565b005b34801561136a57600080fd5b506113ad6004803603602081101561138157600080fd5b81019080803573ffffffffffffffffffffffffffffffffffffffff1690602001909291905050506147b1565b005b6113b833613489565b15156113c357600080fd5b6113cc816147d0565b50565b80600760128111156113dd57fe5b60086000838152602001908152602001600020600b0160009054906101000a900460ff16601281111561140c57fe5b14151561141857600080fd5b61142133611510565b151561142c57600080fd5b6008600083815260200190815260200160002060020160009054906101000a900473ffffffffffffffffffffffffffffffffffffffff168073ffffffffffffffffffffffffffffffffffffffff163373ffffffffffffffffffffffffffffffffffffffff1614151561149d57600080fd5b6008806000858152602001908152602001600020600b0160006101000a81548160ff021916908360128111156114cf57fe5b02179055507fd387ba7c66ff37ae33b5cbb19fe94bcbfe666ea31635889fba1abc7198c2f1bd836040518082815260200191505060405180910390a1505050565b600061152682600161482a90919063ffffffff16565b9050919050565b806001601281111561153b57fe5b60086000838152602001908152602001600020600b0160009054906101000a900460ff16601281111561156a57fe5b14151561157657600080fd5b61157f3361386d565b151561158a57600080fd5b6008600083815260200190815260200160002060030160009054906101000a900473ffffffffffffffffffffffffffffffffffffffff168073ffffffffffffffffffffffffffffffffffffffff163373ffffffffffffffffffffffffffffffffffffffff161415156115fb57600080fd5b600260086000858152602001908152602001600020600b0160006101000a81548160ff0219169083601281111561162e57fe5b02179055507f0c70d89b176b3792b9ff1a750105ae23454802a52d42ea9c264300e29fd8a3e1836040518082815260200191505060405180910390a1505050565b806004601281111561167d57fe5b60086000838152602001908152602001600020600b0160009054906101000a900460ff1660128111156116ac57fe5b1415156116b857600080fd5b6116c13361386d565b15156116cc57600080fd5b6008600083815260200190815260200160002060030160009054906101000a900473ffffffffffffffffffffffffffffffffffffffff168073ffffffffffffffffffffffffffffffffffffffff163373ffffffffffffffffffffffffffffffffffffffff1614151561173d57600080fd5b600560086000858152602001908152602001600020600b0160006101000a81548160ff0219169083601281111561177057fe5b02179055507ff00b9a5725b80c54016f42114f6ed7792d22eecb116011c4afac29c57bef6c95836040518082815260200191505060405180910390a1505050565b80601160128111156117bf57fe5b60086000838152602001908152602001600020600b0160009054906101000a900460ff1660128111156117ee57fe5b1415156117fa57600080fd5b61180333613489565b151561180e57600080fd5b6008600083815260200190815260200160002060020160009054906101000a900473ffffffffffffffffffffffffffffffffffffffff168073ffffffffffffffffffffffffffffffffffffffff163373ffffffffffffffffffffffffffffffffffffffff1614151561187f57600080fd5b601260086000858152602001908152602001600020600b0160006101000a81548160ff021916908360128111156118b257fe5b02179055507fbab163f2da28430bab730ae05df46dce1bd9afc246c0c127134bfe9dc18e053c836040518082815260200191505060405180910390a1505050565b816002601281111561190157fe5b60086000838152602001908152602001600020600b0160009054906101000a900460ff16601281111561193057fe5b14151561193c57600080fd5b6119453361386d565b151561195057600080fd5b6008600084815260200190815260200160002060030160009054906101000a900473ffffffffffffffffffffffffffffffffffffffff168073ffffffffffffffffffffffffffffffffffffffff163373ffffffffffffffffffffffffffffffffffffffff161415156119c157600080fd5b8260086000868152602001908152602001600020600a0181905550600360086000868152602001908152602001600020600b0160006101000a81548160ff02191690836012811115611a0f57fe5b02179055507fa96ae0fc3224ebd79eebfe54bd130cc9cb94416cddd1f2386115e00b72532468846040518082815260200191505060405180910390a150505050565b611a596135e8565b73ffffffffffffffffffffffffffffffffffffffff163373ffffffffffffffffffffffffffffffffffffffff161415611aa5573373ffffffffffffffffffffffffffffffffffffffff16ff5b565b81600b6012811115611ab557fe5b60086000838152602001908152602001600020600b0160009054906101000a900460ff166012811115611ae457fe5b141515611af057600080fd5b611af933613632565b1515611b0457600080fd5b6008600084815260200190815260200160002060020160009054906101000a900473ffffffffffffffffffffffffffffffffffffffff168073ffffffffffffffffffffffffffffffffffffffff163373ffffffffffffffffffffffffffffffffffffffff16141515611b7557600080fd5b8260086000868152602001908152602001600020600a0181905550600c60086000868152602001908152602001600020600b0160006101000a81548160ff02191690836012811115611bc357fe5b02179055507f539b4a835a8a5d1bc5756a9f146e2bfeaa6bd6b1fa77a7631c0a5154c86cdd03846040518082815260200191505060405180910390a150505050565b6000611c1b82600361482a90919063ffffffff16565b9050919050565b611c2b33611510565b1515611c3657600080fd5b611c3f816148be565b50565b611c4b33614918565b565b611c5633614972565b565b80600a6012811115611c6657fe5b60086000838152602001908152602001600020600b0160009054906101000a900460ff166012811115611c9557fe5b141515611ca157600080fd5b611caa33611510565b1515611cb557600080fd5b60086000838152602001908152602001600020600b0160029054906101000a900473ffffffffffffffffffffffffffffffffffffffff168073ffffffffffffffffffffffffffffffffffffffff163373ffffffffffffffffffffffffffffffffffffffff16141515611d2657600080fd5b600b60086000858152602001908152602001600020600b0160006101000a81548160ff02191690836012811115611d5957fe5b02179055507f25727bef8a186dd95a062151451f2d651551b53124c18208d7653b1217ae31ba836040518082815260200191505060405180910390a1505050565b858073ffffffffffffffffffffffffffffffffffffffff163373ffffffffffffffffffffffffffffffffffffffff16141515611dd557600080fd5b611dde3361386d565b1515611de957600080fd5b60008814158015611e1057506000600860008a815260200190815260200160002060010154145b1515611e84576040517f08c379a00000000000000000000000000000000000000000000000000000000081526004018080602001828103825260188152602001807f546869732055504320616c7265616479206578697374732e000000000000000081525060200191505060405180910390fd5b611e8c614e43565b6007548160000181815250508881602001818152505033816040019073ffffffffffffffffffffffffffffffffffffffff16908173ffffffffffffffffffffffffffffffffffffffff168152505033816060019073ffffffffffffffffffffffffffffffffffffffff16908173ffffffffffffffffffffffffffffffffffffffff1681525050868160800181905250858160a00181905250848160c00181905250838160e001819052508281610120018190525066038d7ea4c6800089018161010001818152505060008161016001906012811115611f6757fe5b90816012811115611f7457fe5b8152505060008161018001906001811115611f8b57fe5b90816001811115611f9857fe5b8152505080600860008b8152602001908152602001600020600082015181600001556020820151816001015560408201518160020160006101000a81548173ffffffffffffffffffffffffffffffffffffffff021916908373ffffffffffffffffffffffffffffffffffffffff16021790555060608201518160030160006101000a81548173ffffffffffffffffffffffffffffffffffffffff021916908373ffffffffffffffffffffffffffffffffffffffff160217905550608082015181600401908051906020019061206e929190614f69565b5060a082015181600501908051906020019061208b929190614f69565b5060c08201518160060190805190602001906120a8929190614f69565b5060e08201518160070190805190602001906120c5929190614f69565b5061010082015181600801556101208201518160090190805190602001906120ee929190614f69565b5061014082015181600a015561016082015181600b0160006101000a81548160ff0219169083601281111561211f57fe5b021790555061018082015181600b0160016101000a81548160ff0219169083600181111561214957fe5b02179055506101a082015181600b0160026101000a81548173ffffffffffffffffffffffffffffffffffffffff021916908373ffffffffffffffffffffffffffffffffffffffff1602179055506101c082015181600c0190805190602001906121b3929190614f69565b506101e082015181600d0160006101000a81548173ffffffffffffffffffffffffffffffffffffffff021916908373ffffffffffffffffffffffffffffffffffffffff16021790555061020082015181600e0160006101000a81548173ffffffffffffffffffffffffffffffffffffffff021916908373ffffffffffffffffffffffffffffffffffffffff16021790555061022082015181600f0160006101000a81548173ffffffffffffffffffffffffffffffffffffffff021916908373ffffffffffffffffffffffffffffffffffffffff1602179055509050506001600754016007819055507f8e55ccfc9778ff8eba1646d765cf1982537ce0f9257054a17b48aad745250183896040518082815260200191505060405180910390a1505050505050505050565b600080600060608060008060008060008060006122f8614e43565b600860008f8152602001908152602001600020610240604051908101604052908160008201548152602001600182015481526020016002820160009054906101000a900473ffffffffffffffffffffffffffffffffffffffff1673ffffffffffffffffffffffffffffffffffffffff1673ffffffffffffffffffffffffffffffffffffffff1681526020016003820160009054906101000a900473ffffffffffffffffffffffffffffffffffffffff1673ffffffffffffffffffffffffffffffffffffffff1673ffffffffffffffffffffffffffffffffffffffff168152602001600482018054600181600116156101000203166002900480601f0160208091040260200160405190810160405280929190818152602001828054600181600116156101000203166002900480156124715780601f1061244657610100808354040283529160200191612471565b820191906000526020600020905b81548152906001019060200180831161245457829003601f168201915b50505050508152602001600582018054600181600116156101000203166002900480601f0160208091040260200160405190810160405280929190818152602001828054600181600116156101000203166002900480156125135780601f106124e857610100808354040283529160200191612513565b820191906000526020600020905b8154815290600101906020018083116124f657829003601f168201915b50505050508152602001600682018054600181600116156101000203166002900480601f0160208091040260200160405190810160405280929190818152602001828054600181600116156101000203166002900480156125b55780601f1061258a576101008083540402835291602001916125b5565b820191906000526020600020905b81548152906001019060200180831161259857829003601f168201915b50505050508152602001600782018054600181600116156101000203166002900480601f0160208091040260200160405190810160405280929190818152602001828054600181600116156101000203166002900480156126575780601f1061262c57610100808354040283529160200191612657565b820191906000526020600020905b81548152906001019060200180831161263a57829003601f168201915b5050505050815260200160088201548152602001600982018054600181600116156101000203166002900480601f0160208091040260200160405190810160405280929190818152602001828054600181600116156101000203166002900480156127035780601f106126d857610100808354040283529160200191612703565b820191906000526020600020905b8154815290600101906020018083116126e657829003601f168201915b50505050508152602001600a8201548152602001600b820160009054906101000a900460ff16601281111561273457fe5b601281111561273f57fe5b8152602001600b820160019054906101000a900460ff16600181111561276157fe5b600181111561276c57fe5b8152602001600b820160029054906101000a900473ffffffffffffffffffffffffffffffffffffffff1673ffffffffffffffffffffffffffffffffffffffff1673ffffffffffffffffffffffffffffffffffffffff168152602001600c82018054600181600116156101000203166002900480601f01602080910402602001604051908101604052809291908181526020018280546001816001161561010002031660029004801561285f5780601f106128345761010080835404028352916020019161285f565b820191906000526020600020905b81548152906001019060200180831161284257829003601f168201915b50505050508152602001600d820160009054906101000a900473ffffffffffffffffffffffffffffffffffffffff1673ffffffffffffffffffffffffffffffffffffffff1673ffffffffffffffffffffffffffffffffffffffff168152602001600e820160009054906101000a900473ffffffffffffffffffffffffffffffffffffffff1673ffffffffffffffffffffffffffffffffffffffff1673ffffffffffffffffffffffffffffffffffffffff168152602001600f820160009054906101000a900473ffffffffffffffffffffffffffffffffffffffff1673ffffffffffffffffffffffffffffffffffffffff1673ffffffffffffffffffffffffffffffffffffffff1681525050905080600001518160200151826101000151836101200151846101c00151856101400151866101600151876101800151886101a00151896101e001518a61020001518b61022001518898508797509c509c509c509c509c509c509c509c509c509c509c509c505091939597999b5091939597999b565b6129e861364f565b15156129f357600080fd5b600073ffffffffffffffffffffffffffffffffffffffff16600560009054906101000a900473ffffffffffffffffffffffffffffffffffffffff1673ffffffffffffffffffffffffffffffffffffffff167f8be0079c531659141344cd1fd0a4f28419497f9722a3daafe3b4186f6b6457e060405160405180910390a36000600560006101000a81548173ffffffffffffffffffffffffffffffffffffffff021916908373ffffffffffffffffffffffffffffffffffffffff160217905550565b612abd33613632565b1515612ac857600080fd5b612ad1816149cc565b50565b80600c6012811115612ae257fe5b60086000838152602001908152602001600020600b0160009054906101000a900460ff166012811115612b1157fe5b141515612b1d57600080fd5b612b2633611c05565b1515612b3157600080fd5b60086000838152602001908152602001600020600a0154803410151515612b5757600080fd5b82336008600086815260200190815260200160002060020160006101000a81548173ffffffffffffffffffffffffffffffffffffffff021916908373ffffffffffffffffffffffffffffffffffffffff1602179055503360086000868152602001908152602001600020600e0160006101000a81548173ffffffffffffffffffffffffffffffffffffffff021916908373ffffffffffffffffffffffffffffffffffffffff160217905550600d60086000868152602001908152602001600020600b0160006101000a81548160ff02191690836012811115612c3557fe5b021790555060086000858152602001908152602001600020600d0160009054906101000a900473ffffffffffffffffffffffffffffffffffffffff1673ffffffffffffffffffffffffffffffffffffffff166108fc60086000878152602001908152602001600020600a01549081150290604051600060405180830381858888f19350505050158015612ccc573d6000803e3d6000fd5b507f05421734cbd6ccee3e82115b938259200b4731bed9fa27bc7c3365991f8da6ad846040518082815260200191505060405180910390a1600060086000838152602001908152602001600020600a01549050600081340390506008600084815260200190815260200160002060020160009054906101000a900473ffffffffffffffffffffffffffffffffffffffff1673ffffffffffffffffffffffffffffffffffffffff166108fc829081150290604051600060405180830381858888f19350505050158015612da2573d6000803e3d6000fd5b50505050505050565b600080600080606080606080612dbf614e43565b600860008b8152602001908152602001600020610240604051908101604052908160008201548152602001600182015481526020016002820160009054906101000a900473ffffffffffffffffffffffffffffffffffffffff1673ffffffffffffffffffffffffffffffffffffffff1673ffffffffffffffffffffffffffffffffffffffff1681526020016003820160009054906101000a900473ffffffffffffffffffffffffffffffffffffffff1673ffffffffffffffffffffffffffffffffffffffff1673ffffffffffffffffffffffffffffffffffffffff168152602001600482018054600181600116156101000203166002900480601f016020809104026020016040519081016040528092919081815260200182805460018160011615610100020316600290048015612f385780601f10612f0d57610100808354040283529160200191612f38565b820191906000526020600020905b815481529060010190602001808311612f1b57829003601f168201915b50505050508152602001600582018054600181600116156101000203166002900480601f016020809104026020016040519081016040528092919081815260200182805460018160011615610100020316600290048015612fda5780601f10612faf57610100808354040283529160200191612fda565b820191906000526020600020905b815481529060010190602001808311612fbd57829003601f168201915b50505050508152602001600682018054600181600116156101000203166002900480601f01602080910402602001604051908101604052809291908181526020018280546001816001161561010002031660029004801561307c5780601f106130515761010080835404028352916020019161307c565b820191906000526020600020905b81548152906001019060200180831161305f57829003601f168201915b50505050508152602001600782018054600181600116156101000203166002900480601f01602080910402602001604051908101604052809291908181526020018280546001816001161561010002031660029004801561311e5780601f106130f35761010080835404028352916020019161311e565b820191906000526020600020905b81548152906001019060200180831161310157829003601f168201915b5050505050815260200160088201548152602001600982018054600181600116156101000203166002900480601f0160208091040260200160405190810160405280929190818152602001828054600181600116156101000203166002900480156131ca5780601f1061319f576101008083540402835291602001916131ca565b820191906000526020600020905b8154815290600101906020018083116131ad57829003601f168201915b50505050508152602001600a8201548152602001600b820160009054906101000a900460ff1660128111156131fb57fe5b601281111561320657fe5b8152602001600b820160019054906101000a900460ff16600181111561322857fe5b600181111561323357fe5b8152602001600b820160029054906101000a900473ffffffffffffffffffffffffffffffffffffffff1673ffffffffffffffffffffffffffffffffffffffff1673ffffffffffffffffffffffffffffffffffffffff168152602001600c82018054600181600116156101000203166002900480601f0160208091040260200160405190810160405280929190818152602001828054600181600116156101000203166002900480156133265780601f106132fb57610100808354040283529160200191613326565b820191906000526020600020905b81548152906001019060200180831161330957829003601f168201915b50505050508152602001600d820160009054906101000a900473ffffffffffffffffffffffffffffffffffffffff1673ffffffffffffffffffffffffffffffffffffffff1673ffffffffffffffffffffffffffffffffffffffff168152602001600e820160009054906101000a900473ffffffffffffffffffffffffffffffffffffffff1673ffffffffffffffffffffffffffffffffffffffff1673ffffffffffffffffffffffffffffffffffffffff168152602001600f820160009054906101000a900473ffffffffffffffffffffffffffffffffffffffff1673ffffffffffffffffffffffffffffffffffffffff1673ffffffffffffffffffffffffffffffffffffffff16815250509050806000015181602001518260400151836060015184608001518560a001518660c001518760e001518595508494508393508292508191508090509850985098509850985098509850985050919395975091939597565b600061349f82600461482a90919063ffffffff16565b9050919050565b80600060128111156134b457fe5b60086000838152602001908152602001600020600b0160009054906101000a900460ff1660128111156134e357fe5b1415156134ef57600080fd5b6008600083815260200190815260200160002060030160009054906101000a900473ffffffffffffffffffffffffffffffffffffffff168073ffffffffffffffffffffffffffffffffffffffff163373ffffffffffffffffffffffffffffffffffffffff1614151561356057600080fd5b6135693361386d565b151561357457600080fd5b600160086000858152602001908152602001600020600b0160006101000a81548160ff021916908360128111156135a757fe5b02179055507f5afe3b1bf87069693c075da5c22a98d63d1aef98a30dbbe538d0781a98b77ee5836040518082815260200191505060405180910390a1505050565b6000600560009054906101000a900473ffffffffffffffffffffffffffffffffffffffff16905090565b61361b33611c05565b151561362657600080fd5b61362f81614a26565b50565b600061364882600261482a90919063ffffffff16565b9050919050565b6000600560009054906101000a900473ffffffffffffffffffffffffffffffffffffffff1673ffffffffffffffffffffffffffffffffffffffff163373ffffffffffffffffffffffffffffffffffffffff1614905090565b6136b03361386d565b15156136bb57600080fd5b6136c481614a80565b50565b81600660128111156136d557fe5b60086000838152602001908152602001600020600b0160009054906101000a900460ff16601281111561370457fe5b14151561371057600080fd5b61371933611510565b151561372457600080fd5b6008600084815260200190815260200160002060020160009054906101000a900473ffffffffffffffffffffffffffffffffffffffff168073ffffffffffffffffffffffffffffffffffffffff163373ffffffffffffffffffffffffffffffffffffffff1614151561379557600080fd5b600760086000868152602001908152602001600020600b0160006101000a81548160ff021916908360128111156137c857fe5b0217905550600160086000868152602001908152602001600020600b0160016101000a81548160ff0219169083600181111561380057fe5b02179055508260086000868152602001908152602001600020600c01908051906020019061382f929190614fe9565b507fd29d8a68ca7c8c74be5579719d445aabfe230ed6e6a83aff475a663500eb7609846040518082815260200191505060405180910390a150505050565b600061388382600061482a90919063ffffffff16565b9050919050565b80600d601281111561389857fe5b60086000838152602001908152602001600020600b0160009054906101000a900460ff1660128111156138c757fe5b1415156138d357600080fd5b6138dc33613632565b15156138e757600080fd5b60086000838152602001908152602001600020600d0160009054906101000a900473ffffffffffffffffffffffffffffffffffffffff168073ffffffffffffffffffffffffffffffffffffffff163373ffffffffffffffffffffffffffffffffffffffff1614151561395857600080fd5b600e60086000858152602001908152602001600020600b0160006101000a81548160ff0219169083601281111561398b57fe5b02179055507fc5c33776d405e5686e4386e1ef31a65cf6195e4f7ceb8808ab64d05b6ccbc2a6836040518082815260200191505060405180910390a1505050565b80600560128111156139da57fe5b60086000838152602001908152602001600020600b0160009054906101000a900460ff166012811115613a0957fe5b141515613a1557600080fd5b613a1e33611510565b1515613a2957600080fd5b60086000838152602001908152602001600020600b0160029054906101000a900473ffffffffffffffffffffffffffffffffffffffff168073ffffffffffffffffffffffffffffffffffffffff163373ffffffffffffffffffffffffffffffffffffffff16141515613a9a57600080fd5b600660086000858152602001908152602001600020600b0160006101000a81548160ff02191690836012811115613acd57fe5b02179055507fa8142743f8f70a4c26f3691cf4ed59718381fb2f18070ec52be1f1022d855557836040518082815260200191505060405180910390a1505050565b613b1733614ada565b565b8060096012811115613b2757fe5b60086000838152602001908152602001600020600b0160009054906101000a900460ff166012811115613b5657fe5b141515613b6257600080fd5b613b6b33613632565b1515613b7657600080fd5b60086000838152602001908152602001600020600a0154803410151515613b9c57600080fd5b82336008600086815260200190815260200160002060020160006101000a81548173ffffffffffffffffffffffffffffffffffffffff021916908373ffffffffffffffffffffffffffffffffffffffff1602179055503360086000868152602001908152602001600020600d0160006101000a81548173ffffffffffffffffffffffffffffffffffffffff021916908373ffffffffffffffffffffffffffffffffffffffff160217905550600a60086000868152602001908152602001600020600b0160006101000a81548160ff02191690836012811115613c7a57fe5b021790555060086000858152602001908152602001600020600b0160029054906101000a900473ffffffffffffffffffffffffffffffffffffffff1673ffffffffffffffffffffffffffffffffffffffff166108fc60086000878152602001908152602001600020600a01549081150290604051600060405180830381858888f19350505050158015613d11573d6000803e3d6000fd5b507f4328f1523c24278e57f7bf2678f700578731296056751fe500cd6f53b1a5d952846040518082815260200191505060405180910390a1600060086000838152602001908152602001600020600a01549050600081340390506008600084815260200190815260200160002060020160009054906101000a900473ffffffffffffffffffffffffffffffffffffffff1673ffffffffffffffffffffffffffffffffffffffff166108fc829081150290604051600060405180830381858888f19350505050158015613de7573d6000803e3d6000fd5b50505050505050565b81600e6012811115613dfe57fe5b60086000838152602001908152602001600020600b0160009054906101000a900460ff166012811115613e2d57fe5b141515613e3957600080fd5b613e4233611c05565b1515613e4d57600080fd5b6008600084815260200190815260200160002060020160009054906101000a900473ffffffffffffffffffffffffffffffffffffffff168073ffffffffffffffffffffffffffffffffffffffff163373ffffffffffffffffffffffffffffffffffffffff16141515613ebe57600080fd5b8260086000868152602001908152602001600020600a0181905550600f60086000868152602001908152602001600020600b0160006101000a81548160ff02191690836012811115613f0c57fe5b02179055507f59e7ad085805e2b02ad4b0f8033bd75e7ee4c8cd43f996267463585e35896252846040518082815260200191505060405180910390a150505050565b613f5733614b34565b565b613f6233614b8e565b565b8160086012811115613f7257fe5b60086000838152602001908152602001600020600b0160009054906101000a900460ff166012811115613fa157fe5b141515613fad57600080fd5b613fb633611510565b1515613fc157600080fd5b6008600084815260200190815260200160002060020160009054906101000a900473ffffffffffffffffffffffffffffffffffffffff168073ffffffffffffffffffffffffffffffffffffffff163373ffffffffffffffffffffffffffffffffffffffff1614151561403257600080fd5b8260086000868152602001908152602001600020600a0181905550600960086000868152602001908152602001600020600b0160006101000a81548160ff0219169083601281111561408057fe5b02179055507faec623c8803eb3c795344cb3d2178da45139e85d984a1dc348cf9dc8bd7ff160846040518082815260200191505060405180910390a150505050565b80600f60128111156140d057fe5b60086000838152602001908152602001600020600b0160009054906101000a900460ff1660128111156140ff57fe5b14151561410b57600080fd5b61411433613489565b151561411f57600080fd5b60086000838152602001908152602001600020600a015480341015151561414557600080fd5b82336008600086815260200190815260200160002060020160006101000a81548173ffffffffffffffffffffffffffffffffffffffff021916908373ffffffffffffffffffffffffffffffffffffffff1602179055503360086000868152602001908152602001600020600f0160006101000a81548173ffffffffffffffffffffffffffffffffffffffff021916908373ffffffffffffffffffffffffffffffffffffffff160217905550601060086000868152602001908152602001600020600b0160006101000a81548160ff0219169083601281111561422357fe5b021790555060086000858152602001908152602001600020600e0160009054906101000a900473ffffffffffffffffffffffffffffffffffffffff1673ffffffffffffffffffffffffffffffffffffffff166108fc60086000878152602001908152602001600020600a01549081150290604051600060405180830381858888f193505050501580156142ba573d6000803e3d6000fd5b507f653d56639fee6b566a5c804764e9689de38645f0b733df89a36a1b7b42173dd8846040518082815260200191505060405180910390a1600060086000838152602001908152602001600020600a01549050600081340390506008600084815260200190815260200160002060020160009054906101000a900473ffffffffffffffffffffffffffffffffffffffff1673ffffffffffffffffffffffffffffffffffffffff166108fc829081150290604051600060405180830381858888f19350505050158015614390573d6000803e3d6000fd5b50505050505050565b80600360128111156143a757fe5b60086000838152602001908152602001600020600b0160009054906101000a900460ff1660128111156143d657fe5b1415156143e257600080fd5b6143eb33611510565b15156143f657600080fd5b60086000838152602001908152602001600020600a015480341015151561441c57600080fd5b82336008600086815260200190815260200160002060020160006101000a81548173ffffffffffffffffffffffffffffffffffffffff021916908373ffffffffffffffffffffffffffffffffffffffff1602179055503360086000868152602001908152602001600020600b0160026101000a81548173ffffffffffffffffffffffffffffffffffffffff021916908373ffffffffffffffffffffffffffffffffffffffff160217905550600460086000868152602001908152602001600020600b0160006101000a81548160ff021916908360128111156144fa57fe5b02179055506008600085815260200190815260200160002060030160009054906101000a900473ffffffffffffffffffffffffffffffffffffffff1673ffffffffffffffffffffffffffffffffffffffff166108fc60086000878152602001908152602001600020600a01549081150290604051600060405180830381858888f19350505050158015614591573d6000803e3d6000fd5b507f92f64ca637d023f354075a4be751b169c1a8a9ccb6d33cdd0cb3520543995727846040518082815260200191505060405180910390a1600060086000838152602001908152602001600020600a01549050600081340390506008600084815260200190815260200160002060020160009054906101000a900473ffffffffffffffffffffffffffffffffffffffff1673ffffffffffffffffffffffffffffffffffffffff166108fc829081150290604051600060405180830381858888f19350505050158015614667573d6000803e3d6000fd5b50505050505050565b806010601281111561467e57fe5b60086000838152602001908152602001600020600b0160009054906101000a900460ff1660128111156146ad57fe5b1415156146b957600080fd5b6146c233611c05565b15156146cd57600080fd5b60086000838152602001908152602001600020600e0160009054906101000a900473ffffffffffffffffffffffffffffffffffffffff168073ffffffffffffffffffffffffffffffffffffffff163373ffffffffffffffffffffffffffffffffffffffff1614151561473e57600080fd5b601160086000858152602001908152602001600020600b0160006101000a81548160ff0219169083601281111561477157fe5b02179055507e114a6fadb43e05c82c84612f44de7a592a32426b619579ae7bb4f3815616c7836040518082815260200191505060405180910390a1505050565b6147b961364f565b15156147c457600080fd5b6147cd81614be8565b50565b6147e4816004614ce490919063ffffffff16565b8073ffffffffffffffffffffffffffffffffffffffff167f28b26e7a3d20aedbc5f8f2ebf7da671c0491723a2b78f47a097b0e46dee0714260405160405180910390a250565b60008073ffffffffffffffffffffffffffffffffffffffff168273ffffffffffffffffffffffffffffffffffffffff161415151561486757600080fd5b8260000160008373ffffffffffffffffffffffffffffffffffffffff1673ffffffffffffffffffffffffffffffffffffffff16815260200190815260200160002060009054906101000a900460ff16905092915050565b6148d2816001614ce490919063ffffffff16565b8073ffffffffffffffffffffffffffffffffffffffff167f561138658ca49a8540dc70dcfe64c9026c1c5b9344642242dd6562970f9c127860405160405180910390a250565b61492c816004614d9490919063ffffffff16565b8073ffffffffffffffffffffffffffffffffffffffff167fe3f5ed5f263f1f01764a96edfc7d025f511ec5f7d180e8816908b78bcf74f09860405160405180910390a250565b614986816002614d9490919063ffffffff16565b8073ffffffffffffffffffffffffffffffffffffffff167f126174f6cf49c81cdb4a9214c6b8f037bef55b4ec31e4fc776cea2a1c8a88d5960405160405180910390a250565b6149e0816002614ce490919063ffffffff16565b8073ffffffffffffffffffffffffffffffffffffffff167fddbf200aa634dc3fb81cfd68583dd1040d1c751d335e1d86b631bde3e977fea860405160405180910390a250565b614a3a816003614ce490919063ffffffff16565b8073ffffffffffffffffffffffffffffffffffffffff167f71ae26cad02663e3d92efd6ec56031a80d74a20c0ab4183faa8bf262261c9baa60405160405180910390a250565b614a94816000614ce490919063ffffffff16565b8073ffffffffffffffffffffffffffffffffffffffff167f2a6b352b84affc85ec0ab54b71a09c17830148eb8a1c5aeabf5cd5e73ee7c24860405160405180910390a250565b614aee816000614d9490919063ffffffff16565b8073ffffffffffffffffffffffffffffffffffffffff167f78af5e2bc1f182518b5a494aa807f782e7a2026ab85683d13ce592896a52922f60405160405180910390a250565b614b48816003614d9490919063ffffffff16565b8073ffffffffffffffffffffffffffffffffffffffff167fdb7176e79cffef81cb01767dd0447a0b24bb72ca9778d4b245581086b2a7e6db60405160405180910390a250565b614ba2816001614d9490919063ffffffff16565b8073ffffffffffffffffffffffffffffffffffffffff167f2fed5abf6a80d6dfe30b4895481b2fc5d7dce5f8f7b931832f4a2947d5040c7f60405160405180910390a250565b600073ffffffffffffffffffffffffffffffffffffffff168173ffffffffffffffffffffffffffffffffffffffff1614151515614c2457600080fd5b8073ffffffffffffffffffffffffffffffffffffffff16600560009054906101000a900473ffffffffffffffffffffffffffffffffffffffff1673ffffffffffffffffffffffffffffffffffffffff167f8be0079c531659141344cd1fd0a4f28419497f9722a3daafe3b4186f6b6457e060405160405180910390a380600560006101000a81548173ffffffffffffffffffffffffffffffffffffffff021916908373ffffffffffffffffffffffffffffffffffffffff16021790555050565b600073ffffffffffffffffffffffffffffffffffffffff168173ffffffffffffffffffffffffffffffffffffffff1614151515614d2057600080fd5b614d2a828261482a565b151515614d3657600080fd5b60018260000160008373ffffffffffffffffffffffffffffffffffffffff1673ffffffffffffffffffffffffffffffffffffffff16815260200190815260200160002060006101000a81548160ff0219169083151502179055505050565b600073ffffffffffffffffffffffffffffffffffffffff168173ffffffffffffffffffffffffffffffffffffffff1614151515614dd057600080fd5b614dda828261482a565b1515614de557600080fd5b60008260000160008373ffffffffffffffffffffffffffffffffffffffff1673ffffffffffffffffffffffffffffffffffffffff16815260200190815260200160002060006101000a81548160ff0219169083151502179055505050565b610240604051908101604052806000815260200160008152602001600073ffffffffffffffffffffffffffffffffffffffff168152602001600073ffffffffffffffffffffffffffffffffffffffff1681526020016060815260200160608152602001606081526020016060815260200160008152602001606081526020016000815260200160006012811115614ed657fe5b815260200160006001811115614ee857fe5b8152602001600073ffffffffffffffffffffffffffffffffffffffff16815260200160608152602001600073ffffffffffffffffffffffffffffffffffffffff168152602001600073ffffffffffffffffffffffffffffffffffffffff168152602001600073ffffffffffffffffffffffffffffffffffffffff1681525090565b828054600181600116156101000203166002900490600052602060002090601f016020900481019282601f10614faa57805160ff1916838001178555614fd8565b82800160010185558215614fd8579182015b82811115614fd7578251825591602001919060010190614fbc565b5b509050614fe59190615069565b5090565b828054600181600116156101000203166002900490600052602060002090601f016020900481019282601f1061502a57805160ff1916838001178555615058565b82800160010185558215615058579182015b8281111561505757825182559160200191906001019061503c565b5b5090506150659190615069565b5090565b61508b91905b8082111561508757600081600090555060010161506f565b5090565b9056fea165627a7a72305820e0d05659f3162a6981f0bf8af708606cbab0a84b47744d60f00578981aa750ba0029",
  "source": "pragma solidity ^0.5.1;\r\n\r\nimport '../AccessControl/AccessControl.sol';\r\nimport '../Core/Ownable.sol';\r\n\r\n// Define a contract 'Supplychain'\r\ncontract SupplyChain is AccessControl, Ownable {\r\n\r\n  // Define a variable called 'upc' for Universal Product Code (UPC)\r\n  uint  upc;\r\n\r\n  // Define a variable called 'sku' for Stock Keeping Unit (SKU)\r\n  uint  sku;\r\n\r\n  // Define a public mapping 'items' that maps the UPC to an Item.\r\n  mapping (uint => Item) items;\r\n\r\n  // Define a public mapping 'itemsHistory' that maps the UPC to an array of TxHash, \r\n  // that track its journey through the supply chain -- to be sent from DApp.\r\n  mapping (uint => string[]) itemsHistory;\r\n  \r\n  // Define enum 'State' with the following values:\r\n  enum State \r\n  { \r\n    Harvested,                  // 0\r\n    Processed,                  // 1\r\n    Packaged,                   // 2\r\n    ForSale,                    // 3\r\n    Sold,                       // 4\r\n    Shipped,                    // 5\r\n    Received,                   // 6\r\n    Manufactured,               // 7\r\n    PackagedByManufacturer,     // 8\r\n    ForSaleByManufacturer,      // 9\r\n    SoldByManufacturer,         // 10\r\n    ShippedByManufacturer,      // 11\r\n    ForSaleByDistributor,       // 12\r\n    SoldByDistributor,          // 13\r\n    ShippedByDistributor,       // 14\r\n    ForSaleByRetailer,          // 15\r\n    Purchased,                  // 16\r\n    ShippedByRetailer,          // 17\r\n    ReceivedByConsumer          // 18\r\n    }\r\n    \r\n  // And a Material State enum \r\n    enum MaterialState {\r\n        Lumber,     // 1\r\n        Product     // 2\r\n    }\r\n\r\n  State constant defaultState = State.Harvested;\r\n  MaterialState constant defaultMaterialState = MaterialState.Lumber;\r\n\r\n  // Define a struct 'Item' with the following fields:\r\n  struct Item {\r\n    uint    sku;  // Stock Keeping Unit (SKU)\r\n    uint    upc; // Universal Product Code (UPC), generated by the Harvester, goes on the package, can be verified by the Consumer\r\n    address payable ownerID;  // Metamask-Ethereum address of the current owner as the product moves through 18 stages\r\n    address payable originHarvesterID; // Metamask-Ethereum address of the Harvester\r\n    string  originHarvesterName; // Harvester Name\r\n    string  originHarvesterInformation;  // Harvester Information\r\n    string  originHarvesterLatitude; // Harvester Latitude\r\n    string  originHarvesterLongitude;  // Harvester Longitude\r\n    uint    productID;  // Product ID potentially a combination of upc + sku\r\n    string  productNotes; // Product Notes\r\n    uint    productPrice; // Product Price\r\n    State   itemState;  // Product State as represented in the enum above\r\n    MaterialState itemState2; // Material State of the product as represented by the enum above\r\n    address payable manufacturerID; // Metamask-Ethereum address of the Manufacturer\r\n    string  productNotesByManufacturer; // Product notes that are added by the Manufacturer\r\n    address payable distributorID;  // Metamask-Ethereum address of the Distributor\r\n    address payable retailerID; // Metamask-Ethereum address of the Retailer\r\n    address payable consumerID; // Metamask-Ethereum address of the Consumer\r\n  }\r\n\r\n  // Define 18 events with the same 18 state values and accept 'upc' as input argument\r\n    event Harvested (uint upc);          \r\n    event Processed (uint upc);            \r\n    event Packaged (uint upc);                \r\n    event ForSale  (uint upc);              \r\n    event Sold (uint upc);                 \r\n    event Shipped (uint upc);               \r\n    event Received (uint upc);                \r\n    event Manufactured (uint upc);           \r\n    event PackagedByManufacturer (uint upc);   \r\n    event ForSaleByManufacturer (uint upc);    \r\n    event SoldByManufacturer (uint upc);      \r\n    event ShippedByManufacturer (uint upc);   \r\n    event ForSaleByDistributor (uint upc);    \r\n    event SoldByDistributor (uint upc);      \r\n    event ShippedByDistributor (uint upc);       \r\n    event ForSaleByRetailer (uint upc);           \r\n    event Purchased (uint upc);                \r\n    event ShippedByRetailer (uint upc);          \r\n    event ReceivedByConsumer (uint upc);                     \r\n\r\n  // Define a modifer that verifies the Caller\r\n  modifier verifyCaller (address _address) {\r\n    require(msg.sender == _address); \r\n    _;\r\n  }\r\n\r\n  // Define a modifier that checks if the paid amount is sufficient to cover the price\r\n  modifier paidEnough(uint _price) { \r\n    require(msg.value >= _price); \r\n    _;\r\n  }\r\n  \r\n  // Define a modifier that checks the price and refunds the remaining balance\r\n  modifier checkValue(uint _upc) {\r\n    _;\r\n    uint _price = items[_upc].productPrice;\r\n    uint amountToReturn = msg.value - _price;\r\n    items[_upc].ownerID.transfer(amountToReturn);\r\n  }\r\n\r\n  // Define a modifier that checks if an item.state of a upc is Harvested\r\n  modifier harvested(uint _upc) {\r\n    require(items[_upc].itemState == State.Harvested);\r\n    _;\r\n  }\r\n\r\n  // Define a modifier that checks if an item.state of a upc is Processed\r\n  modifier processed(uint _upc) {\r\n      require(items[_upc].itemState == State.Processed);\r\n    _;\r\n  }\r\n  \r\n  // Define a modifier that checks if an item.state of a upc is Packed\r\n  modifier packaged(uint _upc) {\r\n      require(items[_upc].itemState == State.Packaged);\r\n    _;\r\n  }\r\n\r\n  // Define a modifier that checks if an item.state of a upc is ForSale\r\n  modifier forSale(uint _upc) {\r\n      require(items[_upc].itemState == State.ForSale);\r\n    _;\r\n  }\r\n\r\n  // Define a modifier that checks if an item.state of a upc is Sold\r\n  modifier sold(uint _upc) {\r\n      require(items[_upc].itemState == State.Sold);\r\n    _;\r\n  }\r\n  \r\n  // Define a modifier that checks if an item.state of a upc is Shipped\r\n  modifier shipped(uint _upc) {\r\n      require(items[_upc].itemState == State.Shipped);\r\n    _;\r\n  }\r\n\r\n  // Define a modifier that checks if an item.state of a upc is Received\r\n  modifier received(uint _upc) {\r\n      require(items[_upc].itemState == State.Received);\r\n    _;\r\n  }\r\n  \r\n  // Define a modifier that checks if an item.state of a upc is Manufactured\r\n  modifier manufactured(uint _upc) {\r\n      require(items[_upc].itemState == State.Manufactured);\r\n    _;\r\n  }\r\n  \r\n  // Define a modifier that checks if an item.state of a upc is PackagedByManufacturer\r\n  modifier packagedByManufacturer(uint _upc) {\r\n      require(items[_upc].itemState == State.PackagedByManufacturer);\r\n    _;\r\n  }\r\n  \r\n  // Define a modifier that checks if an item.state of a upc is ForSaleByManufacturer\r\n  modifier forSaleByManufacturer(uint _upc) {\r\n      require(items[_upc].itemState == State.ForSaleByManufacturer);\r\n    _;\r\n  }\r\n  \r\n  // Define a modifier that checks if an item.state of a upc is SoldByManufacturer\r\n  modifier soldByManufacturer(uint _upc) {\r\n      require(items[_upc].itemState == State.SoldByManufacturer);\r\n    _;\r\n  }\r\n  \r\n  // Define a modifier that checks if an item.state of a upc is ShippedByManufacturer\r\n  modifier shippedByManufacturer(uint _upc) {\r\n      require(items[_upc].itemState == State.ShippedByManufacturer);\r\n    _;\r\n  }\r\n  \r\n  // Define a modifier that checks if an item.state of a upc is ForSaleByDistributor\r\n  modifier forSaleByDistributor(uint _upc) {\r\n      require(items[_upc].itemState == State.ForSaleByDistributor);\r\n    _;\r\n  }\r\n  \r\n  // Define a modifier that checks if an item.state of a upc is SoldByDistributor\r\n  modifier soldByDistributor(uint _upc) {\r\n      require(items[_upc].itemState == State.SoldByDistributor);\r\n    _;\r\n  }\r\n  \r\n  // Define a modifier that checks if an item.state of a upc is ShippedByDistributor\r\n  modifier shippedByDistributor(uint _upc) {\r\n      require(items[_upc].itemState == State.ShippedByDistributor);\r\n    _;\r\n  }\r\n  \r\n  // Define a modifier that checks if an item.state of a upc is ForSaleByRetailer\r\n  modifier forSaleByRetailer(uint _upc) {\r\n      require(items[_upc].itemState == State.ForSaleByRetailer);\r\n    _;\r\n  }\r\n  \r\n  // Define a modifier that checks if an item.state of a upc is Purchased\r\n  modifier purchased(uint _upc) {\r\n      require(items[_upc].itemState == State.Purchased);\r\n    _;\r\n  }\r\n  \r\n  // Define a modifier that checks if an item.state of a upc is ShippedByRetailer\r\n  modifier shippedByRetailer(uint _upc) {\r\n      require(items[_upc].itemState == State.ShippedByRetailer);\r\n    _;\r\n  }\r\n  \r\n  // Define a modifier that checks if an item.state of a upc is ReceivedByConsumer\r\n  modifier receivedByConsumer(uint _upc) {\r\n      require(items[_upc].itemState == State.ReceivedByConsumer);\r\n    _;\r\n  }\r\n  \r\n\r\n  // In the constructor\r\n  // set 'sku' to 1\r\n  // and set 'upc' to 1\r\n  constructor() public payable {\r\n    sku = 1;\r\n    upc = 1;\r\n  }\r\n\r\n  // Define a function 'kill' if required\r\n  function kill() public {\r\n    if (msg.sender == owner()) {\r\n      selfdestruct(msg.sender);\r\n    }\r\n  }\r\n  \r\n\r\n  // Define a function 'harvestLumber' that allows a harvester to mark an item 'Harvested'\r\n  function harvestLumber(uint _upc, address _originHarvesterID, string memory _originHarvesterName, string memory _originHarvesterInformation, string memory _originHarvesterLatitude, string  memory _originHarvesterLongitude, string memory _productNotes) public \r\n  \r\n  verifyCaller(_originHarvesterID) //VerifyCaller \r\n  onlyHarvester() // onlyHarvester()\r\n  {\r\n    // Require that the UPC does not already exist\r\n    require(_upc != 0 && items[_upc].upc == 0, \"This UPC already exists.\");\r\n    // Add the new item as part of Harvest\r\n    Item memory newItem;\r\n    newItem.sku = sku;\r\n    newItem.upc = _upc;\r\n    newItem.ownerID = msg.sender;\r\n    newItem.originHarvesterID = msg.sender;\r\n    newItem.originHarvesterName = _originHarvesterName;\r\n    newItem.originHarvesterInformation = _originHarvesterInformation;\r\n    newItem.originHarvesterLatitude = _originHarvesterLatitude;\r\n    newItem.originHarvesterLongitude = _originHarvesterLongitude;\r\n    newItem.productNotes = _productNotes;\r\n    newItem.productID = _upc + 1000000000000000;\r\n    newItem.itemState = State.Harvested;\r\n    newItem.itemState2 = MaterialState.Lumber;\r\n    \r\n    // Add item to mapping using UFC\r\n    items[_upc] = newItem;\r\n    \r\n    // Increment sku\r\n    sku = sku + 1;\r\n    \r\n    // Emit the appropriate event\r\n    emit Harvested(_upc);\r\n    \r\n  }\r\n\r\n  // Define a function 'processLumber' that allows a harvester to mark an item 'Processed'\r\n  function processLumber(uint _upc) public \r\n  // Call modifier to check if upc has passed previous supply chain stage\r\n  harvested(_upc)\r\n  // Call modifier to verify caller of this function\r\n  verifyCaller(items[_upc].originHarvesterID)\r\n  // Only harvester can process \r\n  onlyHarvester()\r\n  {\r\n    // Update the appropriate fields\r\n    items[_upc].itemState = State.Processed;\r\n\r\n    // Emit the appropriate event\r\n    emit Processed(_upc);\r\n  }\r\n\r\n  // Define a function 'pakacgeLumber' that allows a harvester to mark an item 'Packaged'\r\n  function packageLumber(uint _upc) public \r\n  // Call modifier to check if upc has passed previous supply chain stage\r\n  processed(_upc)\r\n  // Only harvester\r\n  onlyHarvester()\r\n  // Call modifier to verify caller of this function\r\n  verifyCaller(items[_upc].originHarvesterID)\r\n  {\r\n    // Update the appropriate fields\r\n    items[_upc].itemState = State.Packaged;\r\n\r\n    // Emit the appropriate event\r\n    emit Packaged(_upc);\r\n  }\r\n\r\n  // Define a function 'sellLumber' that allows a harvester to mark an item 'ForSale'\r\n  function sellLumber(uint _upc, uint _price) public \r\n  // Call modifier to check if upc has passed previous supply chain stage\r\n  packaged(_upc)\r\n  // Only harvester\r\n  onlyHarvester()\r\n  // Call modifier to verify caller of this function\r\n  verifyCaller(items[_upc].originHarvesterID)\r\n  {\r\n    // Update the appropriate fields\r\n    items[_upc].productPrice = _price;\r\n    items[_upc].itemState = State.ForSale;\r\n\r\n    // Emit the appropriate event\r\n    emit ForSale(_upc);\r\n  }\r\n\r\n  // Define a function 'buyItem' that allows the disributor to mark an item 'Sold'\r\n  // Use the above defined modifiers to check if the item is available for sale, if the buyer has paid enough, \r\n  // and any excess ether sent is refunded back to the buyer\r\n  function buyLumber(uint _upc) public payable \r\n    // Call modifier to check if upc has passed previous supply chain stage\r\n    forSale(_upc)\r\n    // Only manufacturer\r\n    onlyManufacturer()\r\n    // Call modifer to check if buyer has paid enough\r\n    paidEnough(items[_upc].productPrice)\r\n    // Call modifer to send any excess ether back to buyer\r\n    checkValue(_upc)\r\n    {\r\n    \r\n    // Update the appropriate fields - ownerID, distributorID, itemState\r\n    items[_upc].ownerID = msg.sender;\r\n    items[_upc].manufacturerID = msg.sender;\r\n    items[_upc].itemState = State.Sold;\r\n    // Transfer money to farmer\r\n    items[_upc].originHarvesterID.transfer(items[_upc].productPrice);\r\n    // emit the appropriate event\r\n    emit Sold(_upc);\r\n  }\r\n\r\n  // Define a function 'shipItem' that allows the distributor to mark an item 'Shipped'\r\n  // Use the above modifers to check if the item is sold\r\n  function shipLumber(uint _upc) public \r\n    // Call modifier to check if upc has passed previous supply chain stage\r\n    sold(_upc)\r\n    // Only harvester\r\n    onlyHarvester()\r\n    // Call modifier to verify caller of this function\r\n    verifyCaller(items[_upc].originHarvesterID)\r\n    {\r\n    // Update the appropriate fields\r\n    items[_upc].itemState = State.Shipped;\r\n    \r\n    // Emit the appropriate event\r\n    emit Shipped(_upc);\r\n  }\r\n\r\n  // Define a function 'receiveItem' that allows the manufacturer to mark an item 'Received'\r\n  // Use the above modifiers to check if the item is shipped\r\n  function receiveLumber(uint _upc) public \r\n    // Call modifier to check if upc has passed previous supply chain stage\r\n    shipped(_upc)\r\n    // Only manufacturer \r\n    onlyManufacturer()\r\n    // Access Control List enforced by calling Smart Contract / DApp\r\n    verifyCaller(items[_upc].manufacturerID)\r\n    {\r\n    // Update the appropriate fields - ownerID, retailerID, itemState\r\n    items[_upc].itemState = State.Received;\r\n    \r\n    // Emit the appropriate event\r\n    emit Received(_upc); \r\n  }\r\n  \r\n  // Manufacture the product by mananufacturer\r\n  function manufactureProduct(uint _upc, string memory _manufacturerNotes) public\r\n  // Call modifier to check if upc has passed previous supply chain stage\r\n  received(_upc)\r\n  // Only manufacturer \r\n    onlyManufacturer()\r\n  // Verify manufacturer\r\n  verifyCaller(items[_upc].ownerID)\r\n  {\r\n      // Change item states accordingly\r\n      items[_upc].itemState = State.Manufactured;\r\n      items[_upc].itemState2 = MaterialState.Product;\r\n      items[_upc].productNotesByManufacturer = _manufacturerNotes;\r\n      \r\n      // Emit event\r\n      emit Manufactured(_upc);\r\n  }\r\n  \r\n  // Allow packaging of product by Manufacturer\r\n  function packageProduct(uint _upc) public \r\n  // Call modifier to check if upc has passed previous supply chain stage\r\n  manufactured(_upc)\r\n  // Only manufacturer \r\n    onlyManufacturer()\r\n  // Call modifier to verify caller of this function\r\n  verifyCaller(items[_upc].ownerID)\r\n  {\r\n    // Update the appropriate fields\r\n    items[_upc].itemState = State.PackagedByManufacturer;\r\n\r\n    // Emit the appropriate event\r\n    emit PackagedByManufacturer(_upc);\r\n  }\r\n  \r\n \r\n  // Allow selling of product by Manufacturer\r\n  function sellProductByManufacturer(uint _upc, uint _price) public \r\n  // Call modifier to check if upc has passed previous supply chain stage\r\n  packagedByManufacturer(_upc)\r\n  // Only manufacturer \r\n    onlyManufacturer()\r\n  // Call modifier to verify caller of this function\r\n  verifyCaller(items[_upc].ownerID)\r\n  {\r\n    // Update the appropriate fields\r\n    items[_upc].productPrice = _price;\r\n    items[_upc].itemState = State.ForSaleByManufacturer;\r\n\r\n    // Emit the appropriate event\r\n    emit ForSaleByManufacturer(_upc);\r\n  }\r\n\r\n  // Define a function 'buyProduct' that allows the distributor\r\n  // Use the above defined modifiers to check if the item is available for sale, if the buyer has paid enough, \r\n  // and any excess ether sent is refunded back to the buyer\r\n  function buyProductByDistributor(uint _upc) public payable \r\n    // Call modifier to check if upc has passed previous supply chain stage\r\n    forSaleByManufacturer(_upc)\r\n    // Only distributor\r\n    onlyDistributor()\r\n    // Call modifer to check if buyer has paid enough\r\n    paidEnough(items[_upc].productPrice)\r\n    // Call modifer to send any excess ether back to buyer\r\n    checkValue(_upc)\r\n    {\r\n    \r\n    // Update the appropriate fields - ownerID, distributorID, itemState\r\n    items[_upc].ownerID = msg.sender;\r\n    items[_upc].distributorID = msg.sender;\r\n    items[_upc].itemState = State.SoldByManufacturer;\r\n    // Transfer money to farmer\r\n    items[_upc].manufacturerID.transfer(items[_upc].productPrice);\r\n    // emit the appropriate event\r\n    emit SoldByManufacturer(_upc);\r\n  }\r\n\r\n  // Allow shipping of product by Manufacturer\r\n  // Use the above modifers to check if the item is sold\r\n  function shipProductByManufacturer(uint _upc) public \r\n    // Call modifier to check if upc has passed previous supply chain stage\r\n    soldByManufacturer(_upc)\r\n    // Only manufacturer \r\n    onlyManufacturer()\r\n    // Call modifier to verify caller of this function\r\n    verifyCaller(items[_upc].manufacturerID)\r\n    {\r\n    // Update the appropriate fields\r\n    items[_upc].itemState = State.ShippedByManufacturer;\r\n    \r\n    // Emit the appropriate event\r\n    emit ShippedByManufacturer(_upc);\r\n  }\r\n  \r\n  \r\n  // Allow selling of product by distributor\r\n  function sellProductByDistributor(uint _upc, uint _price) public \r\n  // Call modifier to check if upc has passed previous supply chain stage\r\n  shippedByManufacturer(_upc)\r\n  // Only distributor\r\n    onlyDistributor()\r\n  // Call modifier to verify caller of this function\r\n  verifyCaller(items[_upc].ownerID)\r\n  {\r\n    // Update the appropriate fields\r\n    items[_upc].productPrice = _price;\r\n    items[_upc].itemState = State.ForSaleByDistributor;\r\n\r\n    // Emit the appropriate event\r\n    emit ForSaleByDistributor(_upc);\r\n  }\r\n\r\n  // Allow buying of product by retailer\r\n  // Use the above defined modifiers to check if the item is available for sale, if the buyer has paid enough, \r\n  // and any excess ether sent is refunded back to the buyer\r\n  function buyProductByRetailer(uint _upc) public payable \r\n    // Call modifier to check if upc has passed previous supply chain stage\r\n    forSaleByDistributor(_upc)\r\n    // Only Retailer\r\n    onlyRetailer()\r\n    // Call modifer to check if buyer has paid enough\r\n    paidEnough(items[_upc].productPrice)\r\n    // Call modifer to send any excess ether back to buyer\r\n    checkValue(_upc)\r\n    {\r\n    \r\n    // Update the appropriate fields - ownerID, distributorID, itemState\r\n    items[_upc].ownerID = msg.sender;\r\n    items[_upc].retailerID = msg.sender;\r\n    items[_upc].itemState = State.SoldByDistributor;\r\n    // Transfer money to farmer\r\n    items[_upc].distributorID.transfer(items[_upc].productPrice);\r\n    // emit the appropriate event\r\n    emit SoldByDistributor(_upc);\r\n  }\r\n\r\n  // Allow shipping of product by distributor\r\n  // Use the above modifers to check if the item is sold\r\n  function shipProductByDistributor(uint _upc) public \r\n    // Call modifier to check if upc has passed previous supply chain stage\r\n    soldByDistributor(_upc)\r\n    // Only distributor\r\n    onlyDistributor()\r\n    // Call modifier to verify caller of this function\r\n    verifyCaller(items[_upc].distributorID)\r\n    {\r\n    // Update the appropriate fields\r\n    items[_upc].itemState = State.ShippedByDistributor;\r\n    \r\n    // Emit the appropriate event\r\n    emit ShippedByDistributor(_upc);\r\n  }\r\n  \r\n  // Allow selling of product by retailer\r\n  function sellProductByRetailer(uint _upc, uint _price) public \r\n  // Call modifier to check if upc has passed previous supply chain stage\r\n  shippedByDistributor(_upc)\r\n  // Only Retailer\r\n    onlyRetailer()\r\n  // Call modifier to verify caller of this function\r\n  verifyCaller(items[_upc].ownerID)\r\n  {\r\n    // Update the appropriate fields\r\n    items[_upc].productPrice = _price;\r\n    items[_upc].itemState = State.ForSaleByRetailer;\r\n\r\n    // Emit the appropriate event\r\n    emit ForSaleByRetailer(_upc);\r\n  }\r\n\r\n  // Define a function 'purchase' that allows the consumer to mark an item 'Purchased'\r\n  // Use the above modifiers to check if the item is received\r\n  function purchase(uint _upc) public payable\r\n    // Call modifier to check if upc has passed previous supply chain stage\r\n    forSaleByRetailer(_upc)\r\n    // Only consumer \r\n    onlyConsumer()\r\n    // Access Control List enforced by calling Smart Contract / DApp\r\n    // Call modifer to check if buyer has paid enough\r\n    paidEnough(items[_upc].productPrice)\r\n    // Call modifer to send any excess ether back to buyer\r\n    checkValue(_upc)\r\n    {\r\n   // Update the appropriate fields - ownerID, distributorID, itemState\r\n    items[_upc].ownerID = msg.sender;\r\n    items[_upc].consumerID = msg.sender;\r\n    items[_upc].itemState = State.Purchased;\r\n    // Transfer money to farmer\r\n    items[_upc].retailerID.transfer(items[_upc].productPrice);\r\n    // emit the appropriate event\r\n    emit Purchased(_upc);\r\n    \r\n  }\r\n  \r\n  // Allow shippinh of product by retailer\r\n  // Use the above modifers to check if the item is sold\r\n  function shipProductByRetailer(uint _upc) public \r\n    // Call modifier to check if upc has passed previous supply chain stage\r\n    purchased(_upc)\r\n    // Only Retailer\r\n    onlyRetailer()\r\n    // Call modifier to verify caller of this function\r\n    verifyCaller(items[_upc].retailerID)\r\n    {\r\n    // Update the appropriate fields\r\n    items[_upc].itemState = State.ShippedByRetailer;\r\n    \r\n    // Emit the appropriate event\r\n    emit ShippedByRetailer(_upc);\r\n  }\r\n  \r\n  // Allow receiving of product by consumer\r\n  // Use the above modifiers to check if the item is shipped\r\n  function receiveProduct(uint _upc) public \r\n    // Call modifier to check if upc has passed previous supply chain stage\r\n    shippedByRetailer(_upc)\r\n    // Only consumer \r\n    onlyConsumer()\r\n    // Access Control List enforced by calling Smart Contract / DApp\r\n    verifyCaller(items[_upc].ownerID)\r\n    {\r\n    // Update the appropriate fields - ownerID, retailerID, itemState\r\n    items[_upc].itemState = State.ReceivedByConsumer;\r\n    \r\n    // Emit the appropriate event\r\n    emit ReceivedByConsumer(_upc); \r\n  }\r\n  \r\n\r\n  // Define a function 'fetchItemBufferOne' that fetches the data\r\n  function fetchItemBufferOne(uint _upc) public view returns \r\n  (\r\n  uint    itemSKU,\r\n  uint    itemUPC,\r\n  address ownerID,\r\n  address originHarvesterID,\r\n  string memory originHarvesterName,\r\n  string memory originHarvesterInformation,\r\n  string memory originHarvesterLatitude,\r\n  string memory originHarvesterLongitude\r\n  ) \r\n  {\r\n  // Assign values to the 8 parameters\r\n  Item memory returnItem = items[_upc];\r\n    \r\n  return \r\n  (\r\n  returnItem.sku,\r\n  returnItem.upc,\r\n  returnItem.ownerID,\r\n  returnItem.originHarvesterID,\r\n  returnItem.originHarvesterName,\r\n  returnItem.originHarvesterInformation,\r\n  returnItem.originHarvesterLatitude,\r\n  returnItem.originHarvesterLongitude\r\n  );\r\n  }\r\n\r\n  // Define a function 'fetchItemBufferTwo' that fetches the data\r\n  function fetchItemBufferTwo(uint _upc) public view returns \r\n  (\r\n  uint    itemSKU,\r\n  uint    itemUPC,\r\n  uint    productID,\r\n  string memory productNotes,\r\n  string memory productNotesByManufacturer,\r\n  uint    productPrice,\r\n  State   itemState,\r\n  MaterialState    itemState2,\r\n  address payable manufacturerID,\r\n  address payable distributorID,\r\n  address payable retailerID,\r\n  address payable consumerID\r\n  ) \r\n  {\r\n    // Assign values to the 9 parameters\r\n  Item memory returnItem = items[_upc];\r\n    \r\n  return \r\n  (\r\n  returnItem.sku,\r\n  returnItem.upc,\r\n  returnItem.productID,\r\n  returnItem.productNotes,\r\n  returnItem.productNotesByManufacturer,\r\n  returnItem.productPrice,\r\n  returnItem.itemState,\r\n  returnItem.itemState2,\r\n  returnItem.manufacturerID,\r\n  returnItem.distributorID,\r\n  returnItem.retailerID,\r\n  returnItem.consumerID\r\n  );\r\n  }\r\n}",
  "sourcePath": "C:/Users/Valentijn.vd.Hout/Desktop/Udacity_SupplyChain/blockchain/contracts/Base/SupplyChain.sol",
  "compiler": {
    "name": "solc",
    "version": "0.5.1+commit.c8a2cb62.Emscripten.clang"
  },
  "schemaVersion": "3.0.0",
  "updatedAt": "2019-03-01T15:28:00.034Z",
  "devdoc": {
    "methods": {
      "isOwner()": {
        "return": "true if `msg.sender` is the owner of the contract.\r"
      },
      "owner()": {
        "return": "the address of the owner.\r"
      },
      "renounceOwnership()": {
        "details": "Allows the current owner to relinquish control of the contract.\r"
      },
      "transferOwnership(address)": {
        "details": "Allows the current owner to transfer control of the contract to a newOwner.\r",
        "params": {
          "newOwner": "The address to transfer ownership to.\r"
        }
      }
    }
  },
  "userdoc": {
    "methods": {
      "renounceOwnership()": {
        "notice": "Renouncing to ownership will leave the contract without an owner.\r It will not be possible to call the functions with the `onlyOwner`\r modifier anymore.\r"
      }
    }
  }
}